{
  "_format": "hh-sol-artifact-1",
  "contractName": "MyEpicNFT",
  "sourceName": "contracts/MyEpicNFT.sol",
  "abi": [
    {
      "inputs": [],
      "stateMutability": "nonpayable",
      "type": "constructor"
    },
    {
      "anonymous": false,
      "inputs": [
        {
          "indexed": true,
          "internalType": "address",
          "name": "owner",
          "type": "address"
        },
        {
          "indexed": true,
          "internalType": "address",
          "name": "approved",
          "type": "address"
        },
        {
          "indexed": true,
          "internalType": "uint256",
          "name": "tokenId",
          "type": "uint256"
        }
      ],
      "name": "Approval",
      "type": "event"
    },
    {
      "anonymous": false,
      "inputs": [
        {
          "indexed": true,
          "internalType": "address",
          "name": "owner",
          "type": "address"
        },
        {
          "indexed": true,
          "internalType": "address",
          "name": "operator",
          "type": "address"
        },
        {
          "indexed": false,
          "internalType": "bool",
          "name": "approved",
          "type": "bool"
        }
      ],
      "name": "ApprovalForAll",
      "type": "event"
    },
    {
      "anonymous": false,
      "inputs": [
        {
          "indexed": false,
          "internalType": "address",
          "name": "sender",
          "type": "address"
        },
        {
          "indexed": false,
          "internalType": "uint256",
          "name": "tokenId",
          "type": "uint256"
        }
      ],
      "name": "NewEpicNFTMinted",
      "type": "event"
    },
    {
      "anonymous": false,
      "inputs": [
        {
          "indexed": true,
          "internalType": "address",
          "name": "from",
          "type": "address"
        },
        {
          "indexed": true,
          "internalType": "address",
          "name": "to",
          "type": "address"
        },
        {
          "indexed": true,
          "internalType": "uint256",
          "name": "tokenId",
          "type": "uint256"
        }
      ],
      "name": "Transfer",
      "type": "event"
    },
    {
      "inputs": [
        {
          "internalType": "address",
          "name": "to",
          "type": "address"
        },
        {
          "internalType": "uint256",
          "name": "tokenId",
          "type": "uint256"
        }
      ],
      "name": "approve",
      "outputs": [],
      "stateMutability": "nonpayable",
      "type": "function"
    },
    {
      "inputs": [
        {
          "internalType": "address",
          "name": "owner",
          "type": "address"
        }
      ],
      "name": "balanceOf",
      "outputs": [
        {
          "internalType": "uint256",
          "name": "",
          "type": "uint256"
        }
      ],
      "stateMutability": "view",
      "type": "function"
    },
    {
      "inputs": [
        {
          "internalType": "uint256",
          "name": "tokenId",
          "type": "uint256"
        }
      ],
      "name": "getApproved",
      "outputs": [
        {
          "internalType": "address",
          "name": "",
          "type": "address"
        }
      ],
      "stateMutability": "view",
      "type": "function"
    },
    {
      "inputs": [],
      "name": "getTotalNFTsMintedSoFar",
      "outputs": [
        {
          "internalType": "uint256",
          "name": "",
          "type": "uint256"
        }
      ],
      "stateMutability": "view",
      "type": "function"
    },
    {
      "inputs": [
        {
          "internalType": "address",
          "name": "owner",
          "type": "address"
        },
        {
          "internalType": "address",
          "name": "operator",
          "type": "address"
        }
      ],
      "name": "isApprovedForAll",
      "outputs": [
        {
          "internalType": "bool",
          "name": "",
          "type": "bool"
        }
      ],
      "stateMutability": "view",
      "type": "function"
    },
    {
      "inputs": [
        {
          "internalType": "string",
          "name": "ipfsLink",
          "type": "string"
        }
      ],
      "name": "makeAnEpicNFT",
      "outputs": [],
      "stateMutability": "nonpayable",
      "type": "function"
    },
    {
      "inputs": [],
      "name": "name",
      "outputs": [
        {
          "internalType": "string",
          "name": "",
          "type": "string"
        }
      ],
      "stateMutability": "view",
      "type": "function"
    },
    {
      "inputs": [
        {
          "internalType": "uint256",
          "name": "tokenId",
          "type": "uint256"
        }
      ],
      "name": "ownerOf",
      "outputs": [
        {
          "internalType": "address",
          "name": "",
          "type": "address"
        }
      ],
      "stateMutability": "view",
      "type": "function"
    },
    {
      "inputs": [
        {
          "internalType": "uint256",
          "name": "tokenId",
          "type": "uint256"
        }
      ],
      "name": "pickRandomColor",
      "outputs": [
        {
          "internalType": "string",
          "name": "",
          "type": "string"
        }
      ],
      "stateMutability": "view",
      "type": "function"
    },
    {
      "inputs": [
        {
          "internalType": "uint256",
          "name": "tokenId",
          "type": "uint256"
        }
      ],
      "name": "pickRandomFirstWord",
      "outputs": [
        {
          "internalType": "string",
          "name": "",
          "type": "string"
        }
      ],
      "stateMutability": "view",
      "type": "function"
    },
    {
      "inputs": [
        {
          "internalType": "uint256",
          "name": "tokenId",
          "type": "uint256"
        }
      ],
      "name": "pickRandomSecondWord",
      "outputs": [
        {
          "internalType": "string",
          "name": "",
          "type": "string"
        }
      ],
      "stateMutability": "view",
      "type": "function"
    },
    {
      "inputs": [
        {
          "internalType": "uint256",
          "name": "tokenId",
          "type": "uint256"
        }
      ],
      "name": "pickRandomThirdWord",
      "outputs": [
        {
          "internalType": "string",
          "name": "",
          "type": "string"
        }
      ],
      "stateMutability": "view",
      "type": "function"
    },
    {
      "inputs": [
        {
          "internalType": "address",
          "name": "from",
          "type": "address"
        },
        {
          "internalType": "address",
          "name": "to",
          "type": "address"
        },
        {
          "internalType": "uint256",
          "name": "tokenId",
          "type": "uint256"
        }
      ],
      "name": "safeTransferFrom",
      "outputs": [],
      "stateMutability": "nonpayable",
      "type": "function"
    },
    {
      "inputs": [
        {
          "internalType": "address",
          "name": "from",
          "type": "address"
        },
        {
          "internalType": "address",
          "name": "to",
          "type": "address"
        },
        {
          "internalType": "uint256",
          "name": "tokenId",
          "type": "uint256"
        },
        {
          "internalType": "bytes",
          "name": "_data",
          "type": "bytes"
        }
      ],
      "name": "safeTransferFrom",
      "outputs": [],
      "stateMutability": "nonpayable",
      "type": "function"
    },
    {
      "inputs": [
        {
          "internalType": "address",
          "name": "operator",
          "type": "address"
        },
        {
          "internalType": "bool",
          "name": "approved",
          "type": "bool"
        }
      ],
      "name": "setApprovalForAll",
      "outputs": [],
      "stateMutability": "nonpayable",
      "type": "function"
    },
    {
      "inputs": [
        {
          "internalType": "bytes4",
          "name": "interfaceId",
          "type": "bytes4"
        }
      ],
      "name": "supportsInterface",
      "outputs": [
        {
          "internalType": "bool",
          "name": "",
          "type": "bool"
        }
      ],
      "stateMutability": "view",
      "type": "function"
    },
    {
      "inputs": [],
      "name": "symbol",
      "outputs": [
        {
          "internalType": "string",
          "name": "",
          "type": "string"
        }
      ],
      "stateMutability": "view",
      "type": "function"
    },
    {
      "inputs": [
        {
          "internalType": "uint256",
          "name": "tokenId",
          "type": "uint256"
        }
      ],
      "name": "tokenURI",
      "outputs": [
        {
          "internalType": "string",
          "name": "",
          "type": "string"
        }
      ],
      "stateMutability": "view",
      "type": "function"
    },
    {
      "inputs": [
        {
          "internalType": "address",
          "name": "from",
          "type": "address"
        },
        {
          "internalType": "address",
          "name": "to",
          "type": "address"
        },
        {
          "internalType": "uint256",
          "name": "tokenId",
          "type": "uint256"
        }
      ],
      "name": "transferFrom",
      "outputs": [],
      "stateMutability": "nonpayable",
      "type": "function"
    }
  ],
  "bytecode": "0x60806040526040518060a001604052806077815260200162004a8960779139600890805190602001906200003592919062000fca565b506040518060e0016040528060b38152602001620049d660b39139600990805190602001906200006792919062000fca565b506040518061010001604052806040518060400160405280600381526020017f726564000000000000000000000000000000000000000000000000000000000081525081526020016040518060400160405280600481526020017f626c75650000000000000000000000000000000000000000000000000000000081525081526020016040518060400160405280600481526020017f677265790000000000000000000000000000000000000000000000000000000081525081526020016040518060400160405280600681526020017f79656c6c6f77000000000000000000000000000000000000000000000000000081525081526020016040518060400160405280600581526020017f677265656e00000000000000000000000000000000000000000000000000000081525081526020016040518060400160405280600681526020017f707572706c65000000000000000000000000000000000000000000000000000081525081526020016040518060400160405280600681526020017f6f72616e6765000000000000000000000000000000000000000000000000000081525081526020016040518060400160405280600581526020017f62726f776e000000000000000000000000000000000000000000000000000000815250815250600a9060086200025c9291906200105b565b506040518061022001604052806040518060400160405280600381526020017f426967000000000000000000000000000000000000000000000000000000000081525081526020016040518060400160405280600381526020017f466174000000000000000000000000000000000000000000000000000000000081525081526020016040518060400160405280600581526020017f536d616c6c00000000000000000000000000000000000000000000000000000081525081526020016040518060400160405280600481526020017f54616c6c0000000000000000000000000000000000000000000000000000000081525081526020016040518060400160405280600981526020017f42656175746966756c000000000000000000000000000000000000000000000081525081526020016040518060400160405280600b81526020017f456e6c69676874656e656400000000000000000000000000000000000000000081525081526020016040518060400160405280600481526020017f5765616b0000000000000000000000000000000000000000000000000000000081525081526020016040518060400160405280600981526020017f44656c6963696f7573000000000000000000000000000000000000000000000081525081526020016040518060400160405280600481526020017f486172640000000000000000000000000000000000000000000000000000000081525081526020016040518060400160405280600481526020017f536f66740000000000000000000000000000000000000000000000000000000081525081526020016040518060400160405280600581526020017f46616e637900000000000000000000000000000000000000000000000000000081525081526020016040518060400160405280600681526020017f536d656c6c79000000000000000000000000000000000000000000000000000081525081526020016040518060400160405280600a81526020017f44697367757374696e670000000000000000000000000000000000000000000081525081526020016040518060400160405280600781526020017f5068616c6c69630000000000000000000000000000000000000000000000000081525081526020016040518060400160405280600681526020017f537065656479000000000000000000000000000000000000000000000000000081525081526020016040518060400160405280600b81526020017f54616e74616c697a696e6700000000000000000000000000000000000000000081525081526020016040518060400160405280600681526020017f53756c7472790000000000000000000000000000000000000000000000000000815250815250600b90601162000664929190620010c2565b50604051806101e001604052806040518060400160405280600881526020017f5374696e67696e6700000000000000000000000000000000000000000000000081525081526020016040518060400160405280600881526020017f547769726c696e6700000000000000000000000000000000000000000000000081525081526020016040518060400160405280600681526020017f446976696e67000000000000000000000000000000000000000000000000000081525081526020016040518060400160405280600781526020017f4d656c74696e670000000000000000000000000000000000000000000000000081525081526020016040518060400160405280600781526020017f53696e6b696e670000000000000000000000000000000000000000000000000081525081526020016040518060400160405280600781526020017f44697070696e670000000000000000000000000000000000000000000000000081525081526020016040518060400160405280600781526020017f4675636b696e670000000000000000000000000000000000000000000000000081525081526020016040518060400160405280600681526020017f576176696e67000000000000000000000000000000000000000000000000000081525081526020016040518060400160405280600881526020017f4669676874696e6700000000000000000000000000000000000000000000000081525081526020016040518060400160405280600781526020017f46616c6c696e670000000000000000000000000000000000000000000000000081525081526020016040518060400160405280600881526020017f4c61756768696e6700000000000000000000000000000000000000000000000081525081526020016040518060400160405280600781526020017f53756c6b696e670000000000000000000000000000000000000000000000000081525081526020016040518060400160405280600881526020017f447265616d696e6700000000000000000000000000000000000000000000000081525081526020016040518060400160405280600781526020017f50697373696e670000000000000000000000000000000000000000000000000081525081526020016040518060400160405280600781526020017f526f6c6c696e6700000000000000000000000000000000000000000000000000815250815250600c90600f620009f692919062001129565b506040518061022001604052806040518060400160405280600781526020017f4f63746f7075730000000000000000000000000000000000000000000000000081525081526020016040518060400160405280600481526020017f547265650000000000000000000000000000000000000000000000000000000081525081526020016040518060400160405280600581526020017f436c6f756400000000000000000000000000000000000000000000000000000081525081526020016040518060400160405280600781526020017f4d6f6e737465720000000000000000000000000000000000000000000000000081525081526020016040518060400160405280600681526020017f426565746c65000000000000000000000000000000000000000000000000000081525081526020016040518060400160405280600481526020017f426172640000000000000000000000000000000000000000000000000000000081525081526020016040518060400160405280600681526020017f596565747573000000000000000000000000000000000000000000000000000081525081526020016040518060400160405280600681526020017f44616e676572000000000000000000000000000000000000000000000000000081525081526020016040518060400160405280600981526020017f576869726c706f6f6c000000000000000000000000000000000000000000000081525081526020016040518060400160405280600781526020017f426f756c6465720000000000000000000000000000000000000000000000000081525081526020016040518060400160405280600981526020017f4176616c616e636865000000000000000000000000000000000000000000000081525081526020016040518060400160405280600581526020017f4a656c6c6f00000000000000000000000000000000000000000000000000000081525081526020016040518060400160405280600881526020017f5374696e6772617900000000000000000000000000000000000000000000000081525081526020016040518060400160405280600681526020017f427564646861000000000000000000000000000000000000000000000000000081525081526020016040518060400160405280600381526020017f446f67000000000000000000000000000000000000000000000000000000000081525081526020016040518060400160405280600681526020017f466572726574000000000000000000000000000000000000000000000000000081525081526020016040518060400160405280600581526020017f5472617368000000000000000000000000000000000000000000000000000000815250815250600d90601162000dfe929190620010c2565b5034801562000e0c57600080fd5b506040518060400160405280600981526020017f5371756172654e465400000000000000000000000000000000000000000000008152506040518060400160405280600681526020017f5351554152450000000000000000000000000000000000000000000000000000815250816000908051906020019062000e9192919062000fca565b50806001908051906020019062000eaa92919062000fca565b50505062000ef86040518060400160405280601c81526020017f4d79457069634e465420636f6e7472616374206465706c6f796564210000000081525062000efe60201b6200114b1760201c565b6200134a565b62000f9e8160405160240162000f1591906200125e565b6040516020818303038152906040527f41304fac000000000000000000000000000000000000000000000000000000007bffffffffffffffffffffffffffffffffffffffffffffffffffffffff19166020820180517bffffffffffffffffffffffffffffffffffffffffffffffffffffffff838183161783525050505062000fa160201b60201c565b50565b60008151905060006a636f6e736f6c652e6c6f679050602083016000808483855afa5050505050565b82805462000fd890620012d4565b90600052602060002090601f01602090048101928262000ffc576000855562001048565b82601f106200101757805160ff191683800117855562001048565b8280016001018555821562001048579182015b82811115620010475782518255916020019190600101906200102a565b5b50905062001057919062001190565b5090565b828054828255906000526020600020908101928215620010af579160200282015b82811115620010ae5782518290805190602001906200109d92919062000fca565b50916020019190600101906200107c565b5b509050620010be9190620011af565b5090565b82805482825590600052602060002090810192821562001116579160200282015b82811115620011155782518290805190602001906200110492919062000fca565b5091602001919060010190620010e3565b5b509050620011259190620011af565b5090565b8280548282559060005260206000209081019282156200117d579160200282015b828111156200117c5782518290805190602001906200116b92919062000fca565b50916020019190600101906200114a565b5b5090506200118c9190620011af565b5090565b5b80821115620011ab57600081600090555060010162001191565b5090565b5b80821115620011d35760008181620011c99190620011d7565b50600101620011b0565b5090565b508054620011e590620012d4565b6000825580601f10620011f957506200121a565b601f01602090049060005260206000209081019062001219919062001190565b5b50565b60006200122a8262001282565b6200123681856200128d565b9350620012488185602086016200129e565b620012538162001339565b840191505092915050565b600060208201905081810360008301526200127a81846200121d565b905092915050565b600081519050919050565b600082825260208201905092915050565b60005b83811015620012be578082015181840152602081019050620012a1565b83811115620012ce576000848401525b50505050565b60006002820490506001821680620012ed57607f821691505b602082108114156200130457620013036200130a565b5b50919050565b7f4e487b7100000000000000000000000000000000000000000000000000000000600052602260045260246000fd5b6000601f19601f8301169050919050565b61367c806200135a6000396000f3fe608060405234801561001057600080fd5b50600436106101215760003560e01c8063514dc8c6116100ad578063b187301f11610071578063b187301f1461032c578063b88d4fde1461035c578063c575757a14610378578063c87b56dd146103a8578063e985e9c5146103d857610121565b8063514dc8c6146102625780636352211e1461029257806370a08231146102c257806395d89b41146102f2578063a22cb4651461031057610121565b8063095ea7b3116100f4578063095ea7b3146101c257806323b872dd146101de5780632de38d68146101fa57806339fa8daf1461022a57806342842e0e1461024657610121565b806301ffc9a714610126578063060475901461015657806306fdde0314610174578063081812fc14610192575b600080fd5b610140600480360381019061013b9190612421565b610408565b60405161014d91906129df565b60405180910390f35b61015e6104ea565b60405161016b9190612c7a565b60405180910390f35b61017c6104fb565b60405161018991906129fa565b60405180910390f35b6101ac60048036038101906101a791906124b4565b61058d565b6040516101b9919061294f565b60405180910390f35b6101dc60048036038101906101d791906123e5565b610612565b005b6101f860048036038101906101f391906122df565b61072a565b005b610214600480360381019061020f91906124b4565b61078a565b60405161022191906129fa565b60405180910390f35b610244600480360381019061023f9190612473565b6108a8565b005b610260600480360381019061025b91906122df565b610977565b005b61027c600480360381019061027791906124b4565b610997565b60405161028991906129fa565b60405180910390f35b6102ac60048036038101906102a791906124b4565b610ab5565b6040516102b9919061294f565b60405180910390f35b6102dc60048036038101906102d7919061227a565b610b67565b6040516102e99190612c7a565b60405180910390f35b6102fa610c1f565b60405161030791906129fa565b60405180910390f35b61032a600480360381019061032591906123a9565b610cb1565b005b610346600480360381019061034191906124b4565b610cc7565b60405161035391906129fa565b60405180910390f35b6103766004803603810190610371919061232e565b610de5565b005b610392600480360381019061038d91906124b4565b610e47565b60405161039f91906129fa565b60405180910390f35b6103c260048036038101906103bd91906124b4565b610f65565b6040516103cf91906129fa565b60405180910390f35b6103f260048036038101906103ed91906122a3565b6110b7565b6040516103ff91906129df565b60405180910390f35b60007f80ac58cd000000000000000000000000000000000000000000000000000000007bffffffffffffffffffffffffffffffffffffffffffffffffffffffff1916827bffffffffffffffffffffffffffffffffffffffffffffffffffffffff191614806104d357507f5b5e139f000000000000000000000000000000000000000000000000000000007bffffffffffffffffffffffffffffffffffffffffffffffffffffffff1916827bffffffffffffffffffffffffffffffffffffffffffffffffffffffff1916145b806104e357506104e2826111e4565b5b9050919050565b60006104f6600761124e565b905090565b60606000805461050a90612ed0565b80601f016020809104026020016040519081016040528092919081815260200182805461053690612ed0565b80156105835780601f1061055857610100808354040283529160200191610583565b820191906000526020600020905b81548152906001019060200180831161056657829003601f168201915b5050505050905090565b60006105988261125c565b6105d7576040517f08c379a00000000000000000000000000000000000000000000000000000000081526004016105ce90612bda565b60405180910390fd5b6004600083815260200190815260200160002060009054906101000a900473ffffffffffffffffffffffffffffffffffffffff169050919050565b600061061d82610ab5565b90508073ffffffffffffffffffffffffffffffffffffffff168373ffffffffffffffffffffffffffffffffffffffff16141561068e576040517f08c379a000000000000000000000000000000000000000000000000000000000815260040161068590612c1a565b60405180910390fd5b8073ffffffffffffffffffffffffffffffffffffffff166106ad6112c8565b73ffffffffffffffffffffffffffffffffffffffff1614806106dc57506106db816106d66112c8565b6110b7565b5b61071b576040517f08c379a000000000000000000000000000000000000000000000000000000000815260040161071290612b1a565b60405180910390fd5b61072583836112d0565b505050565b61073b6107356112c8565b82611389565b61077a576040517f08c379a000000000000000000000000000000000000000000000000000000000815260040161077190612c3a565b60405180910390fd5b610785838383611467565b505050565b606060006107be61079a846116ce565b6040516020016107aa919061290b565b60405160208183030381529060405261187b565b9050600b80549050816107d19190612f7c565b9050600b818154811061080d577f4e487b7100000000000000000000000000000000000000000000000000000000600052603260045260246000fd5b90600052602060002001805461082290612ed0565b80601f016020809104026020016040519081016040528092919081815260200182805461084e90612ed0565b801561089b5780601f106108705761010080835404028352916020019161089b565b820191906000526020600020905b81548152906001019060200180831161087e57829003601f168201915b5050505050915050919050565b60006108b4600761124e565b9050603281106108f9576040517f08c379a00000000000000000000000000000000000000000000000000000000081526004016108f090612c5a565b60405180910390fd5b61090333826118ae565b61090d81836118cc565b610930604051806060016040528060258152602001613622602591398233611940565b61093a60076119df565b7febb98688741ffa4c7589bf325de30cf7becb63de567842e1ccdb6cb949fdc82c338260405161096b9291906129b6565b60405180910390a15050565b61099283838360405180602001604052806000815250610de5565b505050565b606060006109cb6109a7846116ce565b6040516020016109b7919061292d565b60405160208183030381529060405261187b565b9050600a80549050816109de9190612f7c565b9050600a8181548110610a1a577f4e487b7100000000000000000000000000000000000000000000000000000000600052603260045260246000fd5b906000526020600020018054610a2f90612ed0565b80601f0160208091040260200160405190810160405280929190818152602001828054610a5b90612ed0565b8015610aa85780601f10610a7d57610100808354040283529160200191610aa8565b820191906000526020600020905b815481529060010190602001808311610a8b57829003601f168201915b5050505050915050919050565b6000806002600084815260200190815260200160002060009054906101000a900473ffffffffffffffffffffffffffffffffffffffff169050600073ffffffffffffffffffffffffffffffffffffffff168173ffffffffffffffffffffffffffffffffffffffff161415610b5e576040517f08c379a0000000000000000000000000000000000000000000000000000000008152600401610b5590612b5a565b60405180910390fd5b80915050919050565b60008073ffffffffffffffffffffffffffffffffffffffff168273ffffffffffffffffffffffffffffffffffffffff161415610bd8576040517f08c379a0000000000000000000000000000000000000000000000000000000008152600401610bcf90612b3a565b60405180910390fd5b600360008373ffffffffffffffffffffffffffffffffffffffff1673ffffffffffffffffffffffffffffffffffffffff168152602001908152602001600020549050919050565b606060018054610c2e90612ed0565b80601f0160208091040260200160405190810160405280929190818152602001828054610c5a90612ed0565b8015610ca75780601f10610c7c57610100808354040283529160200191610ca7565b820191906000526020600020905b815481529060010190602001808311610c8a57829003601f168201915b5050505050905090565b610cc3610cbc6112c8565b83836119f5565b5050565b60606000610cfb610cd7846116ce565b604051602001610ce791906128e9565b60405160208183030381529060405261187b565b9050600c8054905081610d0e9190612f7c565b9050600c8181548110610d4a577f4e487b7100000000000000000000000000000000000000000000000000000000600052603260045260246000fd5b906000526020600020018054610d5f90612ed0565b80601f0160208091040260200160405190810160405280929190818152602001828054610d8b90612ed0565b8015610dd85780601f10610dad57610100808354040283529160200191610dd8565b820191906000526020600020905b815481529060010190602001808311610dbb57829003601f168201915b5050505050915050919050565b610df6610df06112c8565b83611389565b610e35576040517f08c379a0000000000000000000000000000000000000000000000000000000008152600401610e2c90612c3a565b60405180910390fd5b610e4184848484611b62565b50505050565b60606000610e7b610e57846116ce565b604051602001610e6791906128c7565b60405160208183030381529060405261187b565b9050600d8054905081610e8e9190612f7c565b9050600d8181548110610eca577f4e487b7100000000000000000000000000000000000000000000000000000000600052603260045260246000fd5b906000526020600020018054610edf90612ed0565b80601f0160208091040260200160405190810160405280929190818152602001828054610f0b90612ed0565b8015610f585780601f10610f2d57610100808354040283529160200191610f58565b820191906000526020600020905b815481529060010190602001808311610f3b57829003601f168201915b5050505050915050919050565b6060610f708261125c565b610faf576040517f08c379a0000000000000000000000000000000000000000000000000000000008152600401610fa690612bba565b60405180910390fd5b6000600660008481526020019081526020016000208054610fcf90612ed0565b80601f0160208091040260200160405190810160405280929190818152602001828054610ffb90612ed0565b80156110485780601f1061101d57610100808354040283529160200191611048565b820191906000526020600020905b81548152906001019060200180831161102b57829003601f168201915b505050505090506000611059611bbe565b905060008151141561106f5781925050506110b2565b6000825111156110a457808260405160200161108c9291906128a3565b604051602081830303815290604052925050506110b2565b6110ad84611bd5565b925050505b919050565b6000600560008473ffffffffffffffffffffffffffffffffffffffff1673ffffffffffffffffffffffffffffffffffffffff16815260200190815260200160002060008373ffffffffffffffffffffffffffffffffffffffff1673ffffffffffffffffffffffffffffffffffffffff16815260200190815260200160002060009054906101000a900460ff16905092915050565b6111e18160405160240161115f91906129fa565b6040516020818303038152906040527f41304fac000000000000000000000000000000000000000000000000000000007bffffffffffffffffffffffffffffffffffffffffffffffffffffffff19166020820180517bffffffffffffffffffffffffffffffffffffffffffffffffffffffff8381831617835250505050611c7c565b50565b60007f01ffc9a7000000000000000000000000000000000000000000000000000000007bffffffffffffffffffffffffffffffffffffffffffffffffffffffff1916827bffffffffffffffffffffffffffffffffffffffffffffffffffffffff1916149050919050565b600081600001549050919050565b60008073ffffffffffffffffffffffffffffffffffffffff166002600084815260200190815260200160002060009054906101000a900473ffffffffffffffffffffffffffffffffffffffff1673ffffffffffffffffffffffffffffffffffffffff1614159050919050565b600033905090565b816004600083815260200190815260200160002060006101000a81548173ffffffffffffffffffffffffffffffffffffffff021916908373ffffffffffffffffffffffffffffffffffffffff160217905550808273ffffffffffffffffffffffffffffffffffffffff1661134383610ab5565b73ffffffffffffffffffffffffffffffffffffffff167f8c5be1e5ebec7d5bd14f71427d1e84f3dd0314c0f7b2291e5b200ac8c7c3b92560405160405180910390a45050565b60006113948261125c565b6113d3576040517f08c379a00000000000000000000000000000000000000000000000000000000081526004016113ca90612afa565b60405180910390fd5b60006113de83610ab5565b90508073ffffffffffffffffffffffffffffffffffffffff168473ffffffffffffffffffffffffffffffffffffffff16148061144d57508373ffffffffffffffffffffffffffffffffffffffff166114358461058d565b73ffffffffffffffffffffffffffffffffffffffff16145b8061145e575061145d81856110b7565b5b91505092915050565b8273ffffffffffffffffffffffffffffffffffffffff1661148782610ab5565b73ffffffffffffffffffffffffffffffffffffffff16146114dd576040517f08c379a00000000000000000000000000000000000000000000000000000000081526004016114d490612a7a565b60405180910390fd5b600073ffffffffffffffffffffffffffffffffffffffff168273ffffffffffffffffffffffffffffffffffffffff16141561154d576040517f08c379a000000000000000000000000000000000000000000000000000000000815260040161154490612aba565b60405180910390fd5b611558838383611ca5565b6115636000826112d0565b6001600360008573ffffffffffffffffffffffffffffffffffffffff1673ffffffffffffffffffffffffffffffffffffffff16815260200190815260200160002060008282546115b39190612de6565b925050819055506001600360008473ffffffffffffffffffffffffffffffffffffffff1673ffffffffffffffffffffffffffffffffffffffff168152602001908152602001600020600082825461160a9190612d5f565b92505081905550816002600083815260200190815260200160002060006101000a81548173ffffffffffffffffffffffffffffffffffffffff021916908373ffffffffffffffffffffffffffffffffffffffff160217905550808273ffffffffffffffffffffffffffffffffffffffff168473ffffffffffffffffffffffffffffffffffffffff167fddf252ad1be2c89b69c2b068fc378daa952ba7f163c4a11628f55a4df523b3ef60405160405180910390a46116c9838383611caa565b505050565b60606000821415611716576040518060400160405280600181526020017f30000000000000000000000000000000000000000000000000000000000000008152509050611876565b600082905060005b6000821461174857808061173190612f33565b915050600a826117419190612db5565b915061171e565b60008167ffffffffffffffff81111561178a577f4e487b7100000000000000000000000000000000000000000000000000000000600052604160045260246000fd5b6040519080825280601f01601f1916602001820160405280156117bc5781602001600182028036833780820191505090505b5090505b6000851461186f576001826117d59190612de6565b9150600a856117e49190612f7c565b60306117f09190612d5f565b60f81b81838151811061182c577f4e487b7100000000000000000000000000000000000000000000000000000000600052603260045260246000fd5b60200101907effffffffffffffffffffffffffffffffffffffffffffffffffffffffffffff1916908160001a905350600a856118689190612db5565b94506117c0565b8093505050505b919050565b60008160405160200161188e919061288c565b6040516020818303038152906040528051906020012060001c9050919050565b6118c8828260405180602001604052806000815250611caf565b5050565b6118d58261125c565b611914576040517f08c379a000000000000000000000000000000000000000000000000000000000815260040161190b90612b7a565b60405180910390fd5b8060066000848152602001908152602001600020908051906020019061193b92919061209e565b505050565b6119da83838360405160240161195893929190612a1c565b6040516020818303038152906040527fe3849f79000000000000000000000000000000000000000000000000000000007bffffffffffffffffffffffffffffffffffffffffffffffffffffffff19166020820180517bffffffffffffffffffffffffffffffffffffffffffffffffffffffff8381831617835250505050611c7c565b505050565b6001816000016000828254019250508190555050565b8173ffffffffffffffffffffffffffffffffffffffff168373ffffffffffffffffffffffffffffffffffffffff161415611a64576040517f08c379a0000000000000000000000000000000000000000000000000000000008152600401611a5b90612ada565b60405180910390fd5b80600560008573ffffffffffffffffffffffffffffffffffffffff1673ffffffffffffffffffffffffffffffffffffffff16815260200190815260200160002060008473ffffffffffffffffffffffffffffffffffffffff1673ffffffffffffffffffffffffffffffffffffffff16815260200190815260200160002060006101000a81548160ff0219169083151502179055508173ffffffffffffffffffffffffffffffffffffffff168373ffffffffffffffffffffffffffffffffffffffff167f17307eab39ab6107e8899845ad3d59bd9653f200f220920489ca2b5937696c3183604051611b5591906129df565b60405180910390a3505050565b611b6d848484611467565b611b7984848484611d0a565b611bb8576040517f08c379a0000000000000000000000000000000000000000000000000000000008152600401611baf90612a5a565b60405180910390fd5b50505050565b606060405180602001604052806000815250905090565b6060611be08261125c565b611c1f576040517f08c379a0000000000000000000000000000000000000000000000000000000008152600401611c1690612bfa565b60405180910390fd5b6000611c29611bbe565b90506000815111611c495760405180602001604052806000815250611c74565b80611c53846116ce565b604051602001611c649291906128a3565b6040516020818303038152906040525b915050919050565b60008151905060006a636f6e736f6c652e6c6f679050602083016000808483855afa5050505050565b505050565b505050565b611cb98383611ea1565b611cc66000848484611d0a565b611d05576040517f08c379a0000000000000000000000000000000000000000000000000000000008152600401611cfc90612a5a565b60405180910390fd5b505050565b6000611d2b8473ffffffffffffffffffffffffffffffffffffffff1661207b565b15611e94578373ffffffffffffffffffffffffffffffffffffffff1663150b7a02611d546112c8565b8786866040518563ffffffff1660e01b8152600401611d76949392919061296a565b602060405180830381600087803b158015611d9057600080fd5b505af1925050508015611dc157506040513d601f19601f82011682018060405250810190611dbe919061244a565b60015b611e44573d8060008114611df1576040519150601f19603f3d011682016040523d82523d6000602084013e611df6565b606091505b50600081511415611e3c576040517f08c379a0000000000000000000000000000000000000000000000000000000008152600401611e3390612a5a565b60405180910390fd5b805181602001fd5b63150b7a0260e01b7bffffffffffffffffffffffffffffffffffffffffffffffffffffffff1916817bffffffffffffffffffffffffffffffffffffffffffffffffffffffff191614915050611e99565b600190505b949350505050565b600073ffffffffffffffffffffffffffffffffffffffff168273ffffffffffffffffffffffffffffffffffffffff161415611f11576040517f08c379a0000000000000000000000000000000000000000000000000000000008152600401611f0890612b9a565b60405180910390fd5b611f1a8161125c565b15611f5a576040517f08c379a0000000000000000000000000000000000000000000000000000000008152600401611f5190612a9a565b60405180910390fd5b611f6660008383611ca5565b6001600360008473ffffffffffffffffffffffffffffffffffffffff1673ffffffffffffffffffffffffffffffffffffffff1681526020019081526020016000206000828254611fb69190612d5f565b92505081905550816002600083815260200190815260200160002060006101000a81548173ffffffffffffffffffffffffffffffffffffffff021916908373ffffffffffffffffffffffffffffffffffffffff160217905550808273ffffffffffffffffffffffffffffffffffffffff16600073ffffffffffffffffffffffffffffffffffffffff167fddf252ad1be2c89b69c2b068fc378daa952ba7f163c4a11628f55a4df523b3ef60405160405180910390a461207760008383611caa565b5050565b6000808273ffffffffffffffffffffffffffffffffffffffff163b119050919050565b8280546120aa90612ed0565b90600052602060002090601f0160209004810192826120cc5760008555612113565b82601f106120e557805160ff1916838001178555612113565b82800160010185558215612113579182015b828111156121125782518255916020019190600101906120f7565b5b5090506121209190612124565b5090565b5b8082111561213d576000816000905550600101612125565b5090565b600061215461214f84612cba565b612c95565b90508281526020810184848401111561216c57600080fd5b612177848285612e8e565b509392505050565b600061219261218d84612ceb565b612c95565b9050828152602081018484840111156121aa57600080fd5b6121b5848285612e8e565b509392505050565b6000813590506121cc816135c5565b92915050565b6000813590506121e1816135dc565b92915050565b6000813590506121f6816135f3565b92915050565b60008151905061220b816135f3565b92915050565b600082601f83011261222257600080fd5b8135612232848260208601612141565b91505092915050565b600082601f83011261224c57600080fd5b813561225c84826020860161217f565b91505092915050565b6000813590506122748161360a565b92915050565b60006020828403121561228c57600080fd5b600061229a848285016121bd565b91505092915050565b600080604083850312156122b657600080fd5b60006122c4858286016121bd565b92505060206122d5858286016121bd565b9150509250929050565b6000806000606084860312156122f457600080fd5b6000612302868287016121bd565b9350506020612313868287016121bd565b925050604061232486828701612265565b9150509250925092565b6000806000806080858703121561234457600080fd5b6000612352878288016121bd565b9450506020612363878288016121bd565b935050604061237487828801612265565b925050606085013567ffffffffffffffff81111561239157600080fd5b61239d87828801612211565b91505092959194509250565b600080604083850312156123bc57600080fd5b60006123ca858286016121bd565b92505060206123db858286016121d2565b9150509250929050565b600080604083850312156123f857600080fd5b6000612406858286016121bd565b925050602061241785828601612265565b9150509250929050565b60006020828403121561243357600080fd5b6000612441848285016121e7565b91505092915050565b60006020828403121561245c57600080fd5b600061246a848285016121fc565b91505092915050565b60006020828403121561248557600080fd5b600082013567ffffffffffffffff81111561249f57600080fd5b6124ab8482850161223b565b91505092915050565b6000602082840312156124c657600080fd5b60006124d484828501612265565b91505092915050565b6124e681612e1a565b82525050565b6124f581612e2c565b82525050565b600061250682612d1c565b6125108185612d32565b9350612520818560208601612e9d565b61252981613069565b840191505092915050565b600061253f82612d27565b6125498185612d43565b9350612559818560208601612e9d565b61256281613069565b840191505092915050565b600061257882612d27565b6125828185612d54565b9350612592818560208601612e9d565b80840191505092915050565b60006125ab603283612d43565b91506125b68261307a565b604082019050919050565b60006125ce602583612d43565b91506125d9826130c9565b604082019050919050565b60006125f1601c83612d43565b91506125fc82613118565b602082019050919050565b6000612614600a83612d54565b915061261f82613141565b600a82019050919050565b6000612637602483612d43565b91506126428261316a565b604082019050919050565b600061265a601983612d43565b9150612665826131b9565b602082019050919050565b600061267d600b83612d54565b9150612688826131e2565b600b82019050919050565b60006126a0602c83612d43565b91506126ab8261320b565b604082019050919050565b60006126c3603883612d43565b91506126ce8261325a565b604082019050919050565b60006126e6602a83612d43565b91506126f1826132a9565b604082019050919050565b6000612709602983612d43565b9150612714826132f8565b604082019050919050565b600061272c602e83612d43565b915061273782613347565b604082019050919050565b600061274f602083612d43565b915061275a82613396565b602082019050919050565b6000612772603183612d43565b915061277d826133bf565b604082019050919050565b6000612795602c83612d43565b91506127a08261340e565b604082019050919050565b60006127b8602f83612d43565b91506127c38261345d565b604082019050919050565b60006127db602183612d43565b91506127e6826134ac565b604082019050919050565b60006127fe600a83612d54565b9150612809826134fb565b600a82019050919050565b6000612821603183612d43565b915061282c82613524565b604082019050919050565b6000612844601c83612d43565b915061284f82613573565b602082019050919050565b6000612867600583612d54565b91506128728261359c565b600582019050919050565b61288681612e84565b82525050565b6000612898828461256d565b915081905092915050565b60006128af828561256d565b91506128bb828461256d565b91508190509392505050565b60006128d282612607565b91506128de828461256d565b915081905092915050565b60006128f482612670565b9150612900828461256d565b915081905092915050565b6000612916826127f1565b9150612922828461256d565b915081905092915050565b60006129388261285a565b9150612944828461256d565b915081905092915050565b600060208201905061296460008301846124dd565b92915050565b600060808201905061297f60008301876124dd565b61298c60208301866124dd565b612999604083018561287d565b81810360608301526129ab81846124fb565b905095945050505050565b60006040820190506129cb60008301856124dd565b6129d8602083018461287d565b9392505050565b60006020820190506129f460008301846124ec565b92915050565b60006020820190508181036000830152612a148184612534565b905092915050565b60006060820190508181036000830152612a368186612534565b9050612a45602083018561287d565b612a5260408301846124dd565b949350505050565b60006020820190508181036000830152612a738161259e565b9050919050565b60006020820190508181036000830152612a93816125c1565b9050919050565b60006020820190508181036000830152612ab3816125e4565b9050919050565b60006020820190508181036000830152612ad38161262a565b9050919050565b60006020820190508181036000830152612af38161264d565b9050919050565b60006020820190508181036000830152612b1381612693565b9050919050565b60006020820190508181036000830152612b33816126b6565b9050919050565b60006020820190508181036000830152612b53816126d9565b9050919050565b60006020820190508181036000830152612b73816126fc565b9050919050565b60006020820190508181036000830152612b938161271f565b9050919050565b60006020820190508181036000830152612bb381612742565b9050919050565b60006020820190508181036000830152612bd381612765565b9050919050565b60006020820190508181036000830152612bf381612788565b9050919050565b60006020820190508181036000830152612c13816127ab565b9050919050565b60006020820190508181036000830152612c33816127ce565b9050919050565b60006020820190508181036000830152612c5381612814565b9050919050565b60006020820190508181036000830152612c7381612837565b9050919050565b6000602082019050612c8f600083018461287d565b92915050565b6000612c9f612cb0565b9050612cab8282612f02565b919050565b6000604051905090565b600067ffffffffffffffff821115612cd557612cd461303a565b5b612cde82613069565b9050602081019050919050565b600067ffffffffffffffff821115612d0657612d0561303a565b5b612d0f82613069565b9050602081019050919050565b600081519050919050565b600081519050919050565b600082825260208201905092915050565b600082825260208201905092915050565b600081905092915050565b6000612d6a82612e84565b9150612d7583612e84565b9250827fffffffffffffffffffffffffffffffffffffffffffffffffffffffffffffffff03821115612daa57612da9612fad565b5b828201905092915050565b6000612dc082612e84565b9150612dcb83612e84565b925082612ddb57612dda612fdc565b5b828204905092915050565b6000612df182612e84565b9150612dfc83612e84565b925082821015612e0f57612e0e612fad565b5b828203905092915050565b6000612e2582612e64565b9050919050565b60008115159050919050565b60007fffffffff0000000000000000000000000000000000000000000000000000000082169050919050565b600073ffffffffffffffffffffffffffffffffffffffff82169050919050565b6000819050919050565b82818337600083830152505050565b60005b83811015612ebb578082015181840152602081019050612ea0565b83811115612eca576000848401525b50505050565b60006002820490506001821680612ee857607f821691505b60208210811415612efc57612efb61300b565b5b50919050565b612f0b82613069565b810181811067ffffffffffffffff82111715612f2a57612f2961303a565b5b80604052505050565b6000612f3e82612e84565b91507fffffffffffffffffffffffffffffffffffffffffffffffffffffffffffffffff821415612f7157612f70612fad565b5b600182019050919050565b6000612f8782612e84565b9150612f9283612e84565b925082612fa257612fa1612fdc565b5b828206905092915050565b7f4e487b7100000000000000000000000000000000000000000000000000000000600052601160045260246000fd5b7f4e487b7100000000000000000000000000000000000000000000000000000000600052601260045260246000fd5b7f4e487b7100000000000000000000000000000000000000000000000000000000600052602260045260246000fd5b7f4e487b7100000000000000000000000000000000000000000000000000000000600052604160045260246000fd5b6000601f19601f8301169050919050565b7f4552433732313a207472616e7366657220746f206e6f6e20455243373231526560008201527f63656976657220696d706c656d656e7465720000000000000000000000000000602082015250565b7f4552433732313a207472616e736665722066726f6d20696e636f72726563742060008201527f6f776e6572000000000000000000000000000000000000000000000000000000602082015250565b7f4552433732313a20746f6b656e20616c7265616479206d696e74656400000000600082015250565b7f54484952445f574f524400000000000000000000000000000000000000000000600082015250565b7f4552433732313a207472616e7366657220746f20746865207a65726f2061646460008201527f7265737300000000000000000000000000000000000000000000000000000000602082015250565b7f4552433732313a20617070726f766520746f2063616c6c657200000000000000600082015250565b7f5345434f4e445f574f5244000000000000000000000000000000000000000000600082015250565b7f4552433732313a206f70657261746f7220717565727920666f72206e6f6e657860008201527f697374656e7420746f6b656e0000000000000000000000000000000000000000602082015250565b7f4552433732313a20617070726f76652063616c6c6572206973206e6f74206f7760008201527f6e6572206e6f7220617070726f76656420666f7220616c6c0000000000000000602082015250565b7f4552433732313a2062616c616e636520717565727920666f7220746865207a6560008201527f726f206164647265737300000000000000000000000000000000000000000000602082015250565b7f4552433732313a206f776e657220717565727920666f72206e6f6e657869737460008201527f656e7420746f6b656e0000000000000000000000000000000000000000000000602082015250565b7f45524337323155524953746f726167653a2055524920736574206f66206e6f6e60008201527f6578697374656e7420746f6b656e000000000000000000000000000000000000602082015250565b7f4552433732313a206d696e7420746f20746865207a65726f2061646472657373600082015250565b7f45524337323155524953746f726167653a2055524920717565727920666f722060008201527f6e6f6e6578697374656e7420746f6b656e000000000000000000000000000000602082015250565b7f4552433732313a20617070726f76656420717565727920666f72206e6f6e657860008201527f697374656e7420746f6b656e0000000000000000000000000000000000000000602082015250565b7f4552433732314d657461646174613a2055524920717565727920666f72206e6f60008201527f6e6578697374656e7420746f6b656e0000000000000000000000000000000000602082015250565b7f4552433732313a20617070726f76616c20746f2063757272656e74206f776e6560008201527f7200000000000000000000000000000000000000000000000000000000000000602082015250565b7f46495253545f574f524400000000000000000000000000000000000000000000600082015250565b7f4552433732313a207472616e736665722063616c6c6572206973206e6f74206f60008201527f776e6572206e6f7220617070726f766564000000000000000000000000000000602082015250565b7f43616e2774206d696e7420666f72207468616e203530204e4654277300000000600082015250565b7f434f4c4f52000000000000000000000000000000000000000000000000000000600082015250565b6135ce81612e1a565b81146135d957600080fd5b50565b6135e581612e2c565b81146135f057600080fd5b50565b6135fc81612e38565b811461360757600080fd5b50565b61361381612e84565b811461361e57600080fd5b5056fe416e204e465420772f20494420257320686173206265656e206d696e74656420746f202573a2646970667358221220d993a05597070c323f07ade1a8a360bb2deac09c7f2b5bf81e9e54502c36bd5764736f6c634300080100333b20666f6e742d66616d696c793a2073657269663b20666f6e742d73697a653a20323470783b207d3c2f7374796c653e3c726563742077696474683d273130302527206865696768743d2731303025272066696c6c3d27626c61636b27202f3e3c7465787420783d273530252720793d273530252720636c6173733d27626173652720646f6d696e616e742d626173656c696e653d276d6964646c652720746578742d616e63686f723d276d6964646c65273e3c73766720786d6c6e733d27687474703a2f2f7777772e77332e6f72672f323030302f73766727207072657365727665417370656374526174696f3d27784d696e594d696e206d656574272076696577426f783d273020302033353020333530273e3c7374796c653e2e62617365207b2066696c6c3a20",
  "linkReferences": {},
  "deployedLinkReferences": {}
}