{
  "_format": "hh-sol-artifact-1",
  "contractName": "MyEpicNFT",
  "sourceName": "contracts/MyEpicNFT.sol",
  "abi": [
    {
      "inputs": [],
      "stateMutability": "nonpayable",
      "type": "constructor"
    },
    {
      "anonymous": false,
      "inputs": [
        {
          "indexed": true,
          "internalType": "address",
          "name": "owner",
          "type": "address"
        },
        {
          "indexed": true,
          "internalType": "address",
          "name": "approved",
          "type": "address"
        },
        {
          "indexed": true,
          "internalType": "uint256",
          "name": "tokenId",
          "type": "uint256"
        }
      ],
      "name": "Approval",
      "type": "event"
    },
    {
      "anonymous": false,
      "inputs": [
        {
          "indexed": true,
          "internalType": "address",
          "name": "owner",
          "type": "address"
        },
        {
          "indexed": true,
          "internalType": "address",
          "name": "operator",
          "type": "address"
        },
        {
          "indexed": false,
          "internalType": "bool",
          "name": "approved",
          "type": "bool"
        }
      ],
      "name": "ApprovalForAll",
      "type": "event"
    },
    {
      "anonymous": false,
      "inputs": [
        {
          "indexed": false,
          "internalType": "address",
          "name": "sender",
          "type": "address"
        },
        {
          "indexed": false,
          "internalType": "uint256",
          "name": "tokenId",
          "type": "uint256"
        }
      ],
      "name": "NewEpicNFTMinted",
      "type": "event"
    },
    {
      "anonymous": false,
      "inputs": [
        {
          "indexed": true,
          "internalType": "address",
          "name": "from",
          "type": "address"
        },
        {
          "indexed": true,
          "internalType": "address",
          "name": "to",
          "type": "address"
        },
        {
          "indexed": true,
          "internalType": "uint256",
          "name": "tokenId",
          "type": "uint256"
        }
      ],
      "name": "Transfer",
      "type": "event"
    },
    {
      "inputs": [
        {
          "internalType": "address",
          "name": "to",
          "type": "address"
        },
        {
          "internalType": "uint256",
          "name": "tokenId",
          "type": "uint256"
        }
      ],
      "name": "approve",
      "outputs": [],
      "stateMutability": "nonpayable",
      "type": "function"
    },
    {
      "inputs": [
        {
          "internalType": "address",
          "name": "owner",
          "type": "address"
        }
      ],
      "name": "balanceOf",
      "outputs": [
        {
          "internalType": "uint256",
          "name": "",
          "type": "uint256"
        }
      ],
      "stateMutability": "view",
      "type": "function"
    },
    {
      "inputs": [
        {
          "internalType": "uint256",
          "name": "tokenId",
          "type": "uint256"
        }
      ],
      "name": "getApproved",
      "outputs": [
        {
          "internalType": "address",
          "name": "",
          "type": "address"
        }
      ],
      "stateMutability": "view",
      "type": "function"
    },
    {
      "inputs": [],
      "name": "getTotalNFTsMintedSoFar",
      "outputs": [
        {
          "internalType": "uint256",
          "name": "",
          "type": "uint256"
        }
      ],
      "stateMutability": "view",
      "type": "function"
    },
    {
      "inputs": [
        {
          "internalType": "address",
          "name": "owner",
          "type": "address"
        },
        {
          "internalType": "address",
          "name": "operator",
          "type": "address"
        }
      ],
      "name": "isApprovedForAll",
      "outputs": [
        {
          "internalType": "bool",
          "name": "",
          "type": "bool"
        }
      ],
      "stateMutability": "view",
      "type": "function"
    },
    {
      "inputs": [
        {
          "internalType": "string",
          "name": "ipfsLink",
          "type": "string"
        }
      ],
      "name": "makeAnEpicNFT",
      "outputs": [],
      "stateMutability": "nonpayable",
      "type": "function"
    },
    {
      "inputs": [],
      "name": "name",
      "outputs": [
        {
          "internalType": "string",
          "name": "",
          "type": "string"
        }
      ],
      "stateMutability": "view",
      "type": "function"
    },
    {
      "inputs": [
        {
          "internalType": "uint256",
          "name": "tokenId",
          "type": "uint256"
        }
      ],
      "name": "ownerOf",
      "outputs": [
        {
          "internalType": "address",
          "name": "",
          "type": "address"
        }
      ],
      "stateMutability": "view",
      "type": "function"
    },
    {
      "inputs": [
        {
          "internalType": "address",
          "name": "from",
          "type": "address"
        },
        {
          "internalType": "address",
          "name": "to",
          "type": "address"
        },
        {
          "internalType": "uint256",
          "name": "tokenId",
          "type": "uint256"
        }
      ],
      "name": "safeTransferFrom",
      "outputs": [],
      "stateMutability": "nonpayable",
      "type": "function"
    },
    {
      "inputs": [
        {
          "internalType": "address",
          "name": "from",
          "type": "address"
        },
        {
          "internalType": "address",
          "name": "to",
          "type": "address"
        },
        {
          "internalType": "uint256",
          "name": "tokenId",
          "type": "uint256"
        },
        {
          "internalType": "bytes",
          "name": "_data",
          "type": "bytes"
        }
      ],
      "name": "safeTransferFrom",
      "outputs": [],
      "stateMutability": "nonpayable",
      "type": "function"
    },
    {
      "inputs": [
        {
          "internalType": "address",
          "name": "operator",
          "type": "address"
        },
        {
          "internalType": "bool",
          "name": "approved",
          "type": "bool"
        }
      ],
      "name": "setApprovalForAll",
      "outputs": [],
      "stateMutability": "nonpayable",
      "type": "function"
    },
    {
      "inputs": [
        {
          "internalType": "bytes4",
          "name": "interfaceId",
          "type": "bytes4"
        }
      ],
      "name": "supportsInterface",
      "outputs": [
        {
          "internalType": "bool",
          "name": "",
          "type": "bool"
        }
      ],
      "stateMutability": "view",
      "type": "function"
    },
    {
      "inputs": [],
      "name": "symbol",
      "outputs": [
        {
          "internalType": "string",
          "name": "",
          "type": "string"
        }
      ],
      "stateMutability": "view",
      "type": "function"
    },
    {
      "inputs": [
        {
          "internalType": "uint256",
          "name": "tokenId",
          "type": "uint256"
        }
      ],
      "name": "tokenURI",
      "outputs": [
        {
          "internalType": "string",
          "name": "",
          "type": "string"
        }
      ],
      "stateMutability": "view",
      "type": "function"
    },
    {
      "inputs": [
        {
          "internalType": "address",
          "name": "from",
          "type": "address"
        },
        {
          "internalType": "address",
          "name": "to",
          "type": "address"
        },
        {
          "internalType": "uint256",
          "name": "tokenId",
          "type": "uint256"
        }
      ],
      "name": "transferFrom",
      "outputs": [],
      "stateMutability": "nonpayable",
      "type": "function"
    }
  ],
  "bytecode": "0x60806040523480156200001157600080fd5b506040518060400160405280600981526020017f5371756172654e465400000000000000000000000000000000000000000000008152506040518060400160405280600681526020017f5351554152450000000000000000000000000000000000000000000000000000815250816000908051906020019062000096929190620001cf565b508060019080519060200190620000af929190620001cf565b505050620000fd6040518060400160405280601c81526020017f4d79457069634e465420636f6e7472616374206465706c6f79656421000000008152506200010360201b62000be71760201c565b620003ac565b620001a3816040516024016200011a9190620002c0565b6040516020818303038152906040527f41304fac000000000000000000000000000000000000000000000000000000007bffffffffffffffffffffffffffffffffffffffffffffffffffffffff19166020820180517bffffffffffffffffffffffffffffffffffffffffffffffffffffffff8381831617835250505050620001a660201b60201c565b50565b60008151905060006a636f6e736f6c652e6c6f679050602083016000808483855afa5050505050565b828054620001dd9062000336565b90600052602060002090601f0160209004810192826200020157600085556200024d565b82601f106200021c57805160ff19168380011785556200024d565b828001600101855582156200024d579182015b828111156200024c5782518255916020019190600101906200022f565b5b5090506200025c919062000260565b5090565b5b808211156200027b57600081600090555060010162000261565b5090565b60006200028c82620002e4565b620002988185620002ef565b9350620002aa81856020860162000300565b620002b5816200039b565b840191505092915050565b60006020820190508181036000830152620002dc81846200027f565b905092915050565b600081519050919050565b600082825260208201905092915050565b60005b838110156200032057808201518184015260208101905062000303565b8381111562000330576000848401525b50505050565b600060028204905060018216806200034f57607f821691505b602082108114156200036657620003656200036c565b5b50919050565b7f4e487b7100000000000000000000000000000000000000000000000000000000600052602260045260246000fd5b6000601f19601f8301169050919050565b612f1680620003bc6000396000f3fe608060405234801561001057600080fd5b50600436106100f55760003560e01c806342842e0e11610097578063a22cb46511610066578063a22cb46514610284578063b88d4fde146102a0578063c87b56dd146102bc578063e985e9c5146102ec576100f5565b806342842e0e146101ea5780636352211e1461020657806370a082311461023657806395d89b4114610266576100f5565b8063081812fc116100d3578063081812fc14610166578063095ea7b31461019657806323b872dd146101b257806339fa8daf146101ce576100f5565b806301ffc9a7146100fa578063060475901461012a57806306fdde0314610148575b600080fd5b610114600480360381019061010f9190611e8a565b61031c565b604051610121919061231d565b60405180910390f35b6101326103fe565b60405161013f91906125b8565b60405180910390f35b61015061040f565b60405161015d9190612338565b60405180910390f35b610180600480360381019061017b9190611f1d565b6104a1565b60405161018d919061228d565b60405180910390f35b6101b060048036038101906101ab9190611e4e565b610526565b005b6101cc60048036038101906101c79190611d48565b61063e565b005b6101e860048036038101906101e39190611edc565b61069e565b005b61020460048036038101906101ff9190611d48565b61076d565b005b610220600480360381019061021b9190611f1d565b61078d565b60405161022d919061228d565b60405180910390f35b610250600480360381019061024b9190611ce3565b61083f565b60405161025d91906125b8565b60405180910390f35b61026e6108f7565b60405161027b9190612338565b60405180910390f35b61029e60048036038101906102999190611e12565b610989565b005b6102ba60048036038101906102b59190611d97565b61099f565b005b6102d660048036038101906102d19190611f1d565b610a01565b6040516102e39190612338565b60405180910390f35b61030660048036038101906103019190611d0c565b610b53565b604051610313919061231d565b60405180910390f35b60007f80ac58cd000000000000000000000000000000000000000000000000000000007bffffffffffffffffffffffffffffffffffffffffffffffffffffffff1916827bffffffffffffffffffffffffffffffffffffffffffffffffffffffff191614806103e757507f5b5e139f000000000000000000000000000000000000000000000000000000007bffffffffffffffffffffffffffffffffffffffffffffffffffffffff1916827bffffffffffffffffffffffffffffffffffffffffffffffffffffffff1916145b806103f757506103f682610c80565b5b9050919050565b600061040a6007610cea565b905090565b60606000805461041e9061280e565b80601f016020809104026020016040519081016040528092919081815260200182805461044a9061280e565b80156104975780601f1061046c57610100808354040283529160200191610497565b820191906000526020600020905b81548152906001019060200180831161047a57829003601f168201915b5050505050905090565b60006104ac82610cf8565b6104eb576040517f08c379a00000000000000000000000000000000000000000000000000000000081526004016104e290612518565b60405180910390fd5b6004600083815260200190815260200160002060009054906101000a900473ffffffffffffffffffffffffffffffffffffffff169050919050565b60006105318261078d565b90508073ffffffffffffffffffffffffffffffffffffffff168373ffffffffffffffffffffffffffffffffffffffff1614156105a2576040517f08c379a000000000000000000000000000000000000000000000000000000000815260040161059990612558565b60405180910390fd5b8073ffffffffffffffffffffffffffffffffffffffff166105c1610d64565b73ffffffffffffffffffffffffffffffffffffffff1614806105f057506105ef816105ea610d64565b610b53565b5b61062f576040517f08c379a000000000000000000000000000000000000000000000000000000000815260040161062690612458565b60405180910390fd5b6106398383610d6c565b505050565b61064f610649610d64565b82610e25565b61068e576040517f08c379a000000000000000000000000000000000000000000000000000000000815260040161068590612578565b60405180910390fd5b610699838383610f03565b505050565b60006106aa6007610cea565b9050603281106106ef576040517f08c379a00000000000000000000000000000000000000000000000000000000081526004016106e690612598565b60405180910390fd5b6106f9338261116a565b6107038183611188565b610726604051806060016040528060258152602001612ebc6025913982336111fc565b610730600761129b565b7febb98688741ffa4c7589bf325de30cf7becb63de567842e1ccdb6cb949fdc82c33826040516107619291906122f4565b60405180910390a15050565b6107888383836040518060200160405280600081525061099f565b505050565b6000806002600084815260200190815260200160002060009054906101000a900473ffffffffffffffffffffffffffffffffffffffff169050600073ffffffffffffffffffffffffffffffffffffffff168173ffffffffffffffffffffffffffffffffffffffff161415610836576040517f08c379a000000000000000000000000000000000000000000000000000000000815260040161082d90612498565b60405180910390fd5b80915050919050565b60008073ffffffffffffffffffffffffffffffffffffffff168273ffffffffffffffffffffffffffffffffffffffff1614156108b0576040517f08c379a00000000000000000000000000000000000000000000000000000000081526004016108a790612478565b60405180910390fd5b600360008373ffffffffffffffffffffffffffffffffffffffff1673ffffffffffffffffffffffffffffffffffffffff168152602001908152602001600020549050919050565b6060600180546109069061280e565b80601f01602080910402602001604051908101604052809291908181526020018280546109329061280e565b801561097f5780601f106109545761010080835404028352916020019161097f565b820191906000526020600020905b81548152906001019060200180831161096257829003601f168201915b5050505050905090565b61099b610994610d64565b83836112b1565b5050565b6109b06109aa610d64565b83610e25565b6109ef576040517f08c379a00000000000000000000000000000000000000000000000000000000081526004016109e690612578565b60405180910390fd5b6109fb8484848461141e565b50505050565b6060610a0c82610cf8565b610a4b576040517f08c379a0000000000000000000000000000000000000000000000000000000008152600401610a42906124f8565b60405180910390fd5b6000600660008481526020019081526020016000208054610a6b9061280e565b80601f0160208091040260200160405190810160405280929190818152602001828054610a979061280e565b8015610ae45780601f10610ab957610100808354040283529160200191610ae4565b820191906000526020600020905b815481529060010190602001808311610ac757829003601f168201915b505050505090506000610af561147a565b9050600081511415610b0b578192505050610b4e565b600082511115610b40578082604051602001610b28929190612269565b60405160208183030381529060405292505050610b4e565b610b4984611491565b925050505b919050565b6000600560008473ffffffffffffffffffffffffffffffffffffffff1673ffffffffffffffffffffffffffffffffffffffff16815260200190815260200160002060008373ffffffffffffffffffffffffffffffffffffffff1673ffffffffffffffffffffffffffffffffffffffff16815260200190815260200160002060009054906101000a900460ff16905092915050565b610c7d81604051602401610bfb9190612338565b6040516020818303038152906040527f41304fac000000000000000000000000000000000000000000000000000000007bffffffffffffffffffffffffffffffffffffffffffffffffffffffff19166020820180517bffffffffffffffffffffffffffffffffffffffffffffffffffffffff8381831617835250505050611538565b50565b60007f01ffc9a7000000000000000000000000000000000000000000000000000000007bffffffffffffffffffffffffffffffffffffffffffffffffffffffff1916827bffffffffffffffffffffffffffffffffffffffffffffffffffffffff1916149050919050565b600081600001549050919050565b60008073ffffffffffffffffffffffffffffffffffffffff166002600084815260200190815260200160002060009054906101000a900473ffffffffffffffffffffffffffffffffffffffff1673ffffffffffffffffffffffffffffffffffffffff1614159050919050565b600033905090565b816004600083815260200190815260200160002060006101000a81548173ffffffffffffffffffffffffffffffffffffffff021916908373ffffffffffffffffffffffffffffffffffffffff160217905550808273ffffffffffffffffffffffffffffffffffffffff16610ddf8361078d565b73ffffffffffffffffffffffffffffffffffffffff167f8c5be1e5ebec7d5bd14f71427d1e84f3dd0314c0f7b2291e5b200ac8c7c3b92560405160405180910390a45050565b6000610e3082610cf8565b610e6f576040517f08c379a0000000000000000000000000000000000000000000000000000000008152600401610e6690612438565b60405180910390fd5b6000610e7a8361078d565b90508073ffffffffffffffffffffffffffffffffffffffff168473ffffffffffffffffffffffffffffffffffffffff161480610ee957508373ffffffffffffffffffffffffffffffffffffffff16610ed1846104a1565b73ffffffffffffffffffffffffffffffffffffffff16145b80610efa5750610ef98185610b53565b5b91505092915050565b8273ffffffffffffffffffffffffffffffffffffffff16610f238261078d565b73ffffffffffffffffffffffffffffffffffffffff1614610f79576040517f08c379a0000000000000000000000000000000000000000000000000000000008152600401610f70906123b8565b60405180910390fd5b600073ffffffffffffffffffffffffffffffffffffffff168273ffffffffffffffffffffffffffffffffffffffff161415610fe9576040517f08c379a0000000000000000000000000000000000000000000000000000000008152600401610fe0906123f8565b60405180910390fd5b610ff4838383611561565b610fff600082610d6c565b6001600360008573ffffffffffffffffffffffffffffffffffffffff1673ffffffffffffffffffffffffffffffffffffffff168152602001908152602001600020600082825461104f9190612724565b925050819055506001600360008473ffffffffffffffffffffffffffffffffffffffff1673ffffffffffffffffffffffffffffffffffffffff16815260200190815260200160002060008282546110a6919061269d565b92505081905550816002600083815260200190815260200160002060006101000a81548173ffffffffffffffffffffffffffffffffffffffff021916908373ffffffffffffffffffffffffffffffffffffffff160217905550808273ffffffffffffffffffffffffffffffffffffffff168473ffffffffffffffffffffffffffffffffffffffff167fddf252ad1be2c89b69c2b068fc378daa952ba7f163c4a11628f55a4df523b3ef60405160405180910390a4611165838383611566565b505050565b61118482826040518060200160405280600081525061156b565b5050565b61119182610cf8565b6111d0576040517f08c379a00000000000000000000000000000000000000000000000000000000081526004016111c7906124b8565b60405180910390fd5b806006600084815260200190815260200160002090805190602001906111f7929190611b07565b505050565b6112968383836040516024016112149392919061235a565b6040516020818303038152906040527fe3849f79000000000000000000000000000000000000000000000000000000007bffffffffffffffffffffffffffffffffffffffffffffffffffffffff19166020820180517bffffffffffffffffffffffffffffffffffffffffffffffffffffffff8381831617835250505050611538565b505050565b6001816000016000828254019250508190555050565b8173ffffffffffffffffffffffffffffffffffffffff168373ffffffffffffffffffffffffffffffffffffffff161415611320576040517f08c379a000000000000000000000000000000000000000000000000000000000815260040161131790612418565b60405180910390fd5b80600560008573ffffffffffffffffffffffffffffffffffffffff1673ffffffffffffffffffffffffffffffffffffffff16815260200190815260200160002060008473ffffffffffffffffffffffffffffffffffffffff1673ffffffffffffffffffffffffffffffffffffffff16815260200190815260200160002060006101000a81548160ff0219169083151502179055508173ffffffffffffffffffffffffffffffffffffffff168373ffffffffffffffffffffffffffffffffffffffff167f17307eab39ab6107e8899845ad3d59bd9653f200f220920489ca2b5937696c3183604051611411919061231d565b60405180910390a3505050565b611429848484610f03565b611435848484846115c6565b611474576040517f08c379a000000000000000000000000000000000000000000000000000000000815260040161146b90612398565b60405180910390fd5b50505050565b606060405180602001604052806000815250905090565b606061149c82610cf8565b6114db576040517f08c379a00000000000000000000000000000000000000000000000000000000081526004016114d290612538565b60405180910390fd5b60006114e561147a565b905060008151116115055760405180602001604052806000815250611530565b8061150f8461175d565b604051602001611520929190612269565b6040516020818303038152906040525b915050919050565b60008151905060006a636f6e736f6c652e6c6f679050602083016000808483855afa5050505050565b505050565b505050565b611575838361190a565b61158260008484846115c6565b6115c1576040517f08c379a00000000000000000000000000000000000000000000000000000000081526004016115b890612398565b60405180910390fd5b505050565b60006115e78473ffffffffffffffffffffffffffffffffffffffff16611ae4565b15611750578373ffffffffffffffffffffffffffffffffffffffff1663150b7a02611610610d64565b8786866040518563ffffffff1660e01b815260040161163294939291906122a8565b602060405180830381600087803b15801561164c57600080fd5b505af192505050801561167d57506040513d601f19601f8201168201806040525081019061167a9190611eb3565b60015b611700573d80600081146116ad576040519150601f19603f3d011682016040523d82523d6000602084013e6116b2565b606091505b506000815114156116f8576040517f08c379a00000000000000000000000000000000000000000000000000000000081526004016116ef90612398565b60405180910390fd5b805181602001fd5b63150b7a0260e01b7bffffffffffffffffffffffffffffffffffffffffffffffffffffffff1916817bffffffffffffffffffffffffffffffffffffffffffffffffffffffff191614915050611755565b600190505b949350505050565b606060008214156117a5576040518060400160405280600181526020017f30000000000000000000000000000000000000000000000000000000000000008152509050611905565b600082905060005b600082146117d75780806117c090612871565b915050600a826117d091906126f3565b91506117ad565b60008167ffffffffffffffff811115611819577f4e487b7100000000000000000000000000000000000000000000000000000000600052604160045260246000fd5b6040519080825280601f01601f19166020018201604052801561184b5781602001600182028036833780820191505090505b5090505b600085146118fe576001826118649190612724565b9150600a8561187391906128ba565b603061187f919061269d565b60f81b8183815181106118bb577f4e487b7100000000000000000000000000000000000000000000000000000000600052603260045260246000fd5b60200101907effffffffffffffffffffffffffffffffffffffffffffffffffffffffffffff1916908160001a905350600a856118f791906126f3565b945061184f565b8093505050505b919050565b600073ffffffffffffffffffffffffffffffffffffffff168273ffffffffffffffffffffffffffffffffffffffff16141561197a576040517f08c379a0000000000000000000000000000000000000000000000000000000008152600401611971906124d8565b60405180910390fd5b61198381610cf8565b156119c3576040517f08c379a00000000000000000000000000000000000000000000000000000000081526004016119ba906123d8565b60405180910390fd5b6119cf60008383611561565b6001600360008473ffffffffffffffffffffffffffffffffffffffff1673ffffffffffffffffffffffffffffffffffffffff1681526020019081526020016000206000828254611a1f919061269d565b92505081905550816002600083815260200190815260200160002060006101000a81548173ffffffffffffffffffffffffffffffffffffffff021916908373ffffffffffffffffffffffffffffffffffffffff160217905550808273ffffffffffffffffffffffffffffffffffffffff16600073ffffffffffffffffffffffffffffffffffffffff167fddf252ad1be2c89b69c2b068fc378daa952ba7f163c4a11628f55a4df523b3ef60405160405180910390a4611ae060008383611566565b5050565b6000808273ffffffffffffffffffffffffffffffffffffffff163b119050919050565b828054611b139061280e565b90600052602060002090601f016020900481019282611b355760008555611b7c565b82601f10611b4e57805160ff1916838001178555611b7c565b82800160010185558215611b7c579182015b82811115611b7b578251825591602001919060010190611b60565b5b509050611b899190611b8d565b5090565b5b80821115611ba6576000816000905550600101611b8e565b5090565b6000611bbd611bb8846125f8565b6125d3565b905082815260208101848484011115611bd557600080fd5b611be08482856127cc565b509392505050565b6000611bfb611bf684612629565b6125d3565b905082815260208101848484011115611c1357600080fd5b611c1e8482856127cc565b509392505050565b600081359050611c3581612e5f565b92915050565b600081359050611c4a81612e76565b92915050565b600081359050611c5f81612e8d565b92915050565b600081519050611c7481612e8d565b92915050565b600082601f830112611c8b57600080fd5b8135611c9b848260208601611baa565b91505092915050565b600082601f830112611cb557600080fd5b8135611cc5848260208601611be8565b91505092915050565b600081359050611cdd81612ea4565b92915050565b600060208284031215611cf557600080fd5b6000611d0384828501611c26565b91505092915050565b60008060408385031215611d1f57600080fd5b6000611d2d85828601611c26565b9250506020611d3e85828601611c26565b9150509250929050565b600080600060608486031215611d5d57600080fd5b6000611d6b86828701611c26565b9350506020611d7c86828701611c26565b9250506040611d8d86828701611cce565b9150509250925092565b60008060008060808587031215611dad57600080fd5b6000611dbb87828801611c26565b9450506020611dcc87828801611c26565b9350506040611ddd87828801611cce565b925050606085013567ffffffffffffffff811115611dfa57600080fd5b611e0687828801611c7a565b91505092959194509250565b60008060408385031215611e2557600080fd5b6000611e3385828601611c26565b9250506020611e4485828601611c3b565b9150509250929050565b60008060408385031215611e6157600080fd5b6000611e6f85828601611c26565b9250506020611e8085828601611cce565b9150509250929050565b600060208284031215611e9c57600080fd5b6000611eaa84828501611c50565b91505092915050565b600060208284031215611ec557600080fd5b6000611ed384828501611c65565b91505092915050565b600060208284031215611eee57600080fd5b600082013567ffffffffffffffff811115611f0857600080fd5b611f1484828501611ca4565b91505092915050565b600060208284031215611f2f57600080fd5b6000611f3d84828501611cce565b91505092915050565b611f4f81612758565b82525050565b611f5e8161276a565b82525050565b6000611f6f8261265a565b611f798185612670565b9350611f898185602086016127db565b611f92816129a7565b840191505092915050565b6000611fa882612665565b611fb28185612681565b9350611fc28185602086016127db565b611fcb816129a7565b840191505092915050565b6000611fe182612665565b611feb8185612692565b9350611ffb8185602086016127db565b80840191505092915050565b6000612014603283612681565b915061201f826129b8565b604082019050919050565b6000612037602583612681565b915061204282612a07565b604082019050919050565b600061205a601c83612681565b915061206582612a56565b602082019050919050565b600061207d602483612681565b915061208882612a7f565b604082019050919050565b60006120a0601983612681565b91506120ab82612ace565b602082019050919050565b60006120c3602c83612681565b91506120ce82612af7565b604082019050919050565b60006120e6603883612681565b91506120f182612b46565b604082019050919050565b6000612109602a83612681565b915061211482612b95565b604082019050919050565b600061212c602983612681565b915061213782612be4565b604082019050919050565b600061214f602e83612681565b915061215a82612c33565b604082019050919050565b6000612172602083612681565b915061217d82612c82565b602082019050919050565b6000612195603183612681565b91506121a082612cab565b604082019050919050565b60006121b8602c83612681565b91506121c382612cfa565b604082019050919050565b60006121db602f83612681565b91506121e682612d49565b604082019050919050565b60006121fe602183612681565b915061220982612d98565b604082019050919050565b6000612221603183612681565b915061222c82612de7565b604082019050919050565b6000612244601c83612681565b915061224f82612e36565b602082019050919050565b612263816127c2565b82525050565b60006122758285611fd6565b91506122818284611fd6565b91508190509392505050565b60006020820190506122a26000830184611f46565b92915050565b60006080820190506122bd6000830187611f46565b6122ca6020830186611f46565b6122d7604083018561225a565b81810360608301526122e98184611f64565b905095945050505050565b60006040820190506123096000830185611f46565b612316602083018461225a565b9392505050565b60006020820190506123326000830184611f55565b92915050565b600060208201905081810360008301526123528184611f9d565b905092915050565b600060608201905081810360008301526123748186611f9d565b9050612383602083018561225a565b6123906040830184611f46565b949350505050565b600060208201905081810360008301526123b181612007565b9050919050565b600060208201905081810360008301526123d18161202a565b9050919050565b600060208201905081810360008301526123f18161204d565b9050919050565b6000602082019050818103600083015261241181612070565b9050919050565b6000602082019050818103600083015261243181612093565b9050919050565b60006020820190508181036000830152612451816120b6565b9050919050565b60006020820190508181036000830152612471816120d9565b9050919050565b60006020820190508181036000830152612491816120fc565b9050919050565b600060208201905081810360008301526124b18161211f565b9050919050565b600060208201905081810360008301526124d181612142565b9050919050565b600060208201905081810360008301526124f181612165565b9050919050565b6000602082019050818103600083015261251181612188565b9050919050565b60006020820190508181036000830152612531816121ab565b9050919050565b60006020820190508181036000830152612551816121ce565b9050919050565b60006020820190508181036000830152612571816121f1565b9050919050565b6000602082019050818103600083015261259181612214565b9050919050565b600060208201905081810360008301526125b181612237565b9050919050565b60006020820190506125cd600083018461225a565b92915050565b60006125dd6125ee565b90506125e98282612840565b919050565b6000604051905090565b600067ffffffffffffffff82111561261357612612612978565b5b61261c826129a7565b9050602081019050919050565b600067ffffffffffffffff82111561264457612643612978565b5b61264d826129a7565b9050602081019050919050565b600081519050919050565b600081519050919050565b600082825260208201905092915050565b600082825260208201905092915050565b600081905092915050565b60006126a8826127c2565b91506126b3836127c2565b9250827fffffffffffffffffffffffffffffffffffffffffffffffffffffffffffffffff038211156126e8576126e76128eb565b5b828201905092915050565b60006126fe826127c2565b9150612709836127c2565b9250826127195761271861291a565b5b828204905092915050565b600061272f826127c2565b915061273a836127c2565b92508282101561274d5761274c6128eb565b5b828203905092915050565b6000612763826127a2565b9050919050565b60008115159050919050565b60007fffffffff0000000000000000000000000000000000000000000000000000000082169050919050565b600073ffffffffffffffffffffffffffffffffffffffff82169050919050565b6000819050919050565b82818337600083830152505050565b60005b838110156127f95780820151818401526020810190506127de565b83811115612808576000848401525b50505050565b6000600282049050600182168061282657607f821691505b6020821081141561283a57612839612949565b5b50919050565b612849826129a7565b810181811067ffffffffffffffff8211171561286857612867612978565b5b80604052505050565b600061287c826127c2565b91507fffffffffffffffffffffffffffffffffffffffffffffffffffffffffffffffff8214156128af576128ae6128eb565b5b600182019050919050565b60006128c5826127c2565b91506128d0836127c2565b9250826128e0576128df61291a565b5b828206905092915050565b7f4e487b7100000000000000000000000000000000000000000000000000000000600052601160045260246000fd5b7f4e487b7100000000000000000000000000000000000000000000000000000000600052601260045260246000fd5b7f4e487b7100000000000000000000000000000000000000000000000000000000600052602260045260246000fd5b7f4e487b7100000000000000000000000000000000000000000000000000000000600052604160045260246000fd5b6000601f19601f8301169050919050565b7f4552433732313a207472616e7366657220746f206e6f6e20455243373231526560008201527f63656976657220696d706c656d656e7465720000000000000000000000000000602082015250565b7f4552433732313a207472616e736665722066726f6d20696e636f72726563742060008201527f6f776e6572000000000000000000000000000000000000000000000000000000602082015250565b7f4552433732313a20746f6b656e20616c7265616479206d696e74656400000000600082015250565b7f4552433732313a207472616e7366657220746f20746865207a65726f2061646460008201527f7265737300000000000000000000000000000000000000000000000000000000602082015250565b7f4552433732313a20617070726f766520746f2063616c6c657200000000000000600082015250565b7f4552433732313a206f70657261746f7220717565727920666f72206e6f6e657860008201527f697374656e7420746f6b656e0000000000000000000000000000000000000000602082015250565b7f4552433732313a20617070726f76652063616c6c6572206973206e6f74206f7760008201527f6e6572206e6f7220617070726f76656420666f7220616c6c0000000000000000602082015250565b7f4552433732313a2062616c616e636520717565727920666f7220746865207a6560008201527f726f206164647265737300000000000000000000000000000000000000000000602082015250565b7f4552433732313a206f776e657220717565727920666f72206e6f6e657869737460008201527f656e7420746f6b656e0000000000000000000000000000000000000000000000602082015250565b7f45524337323155524953746f726167653a2055524920736574206f66206e6f6e60008201527f6578697374656e7420746f6b656e000000000000000000000000000000000000602082015250565b7f4552433732313a206d696e7420746f20746865207a65726f2061646472657373600082015250565b7f45524337323155524953746f726167653a2055524920717565727920666f722060008201527f6e6f6e6578697374656e7420746f6b656e000000000000000000000000000000602082015250565b7f4552433732313a20617070726f76656420717565727920666f72206e6f6e657860008201527f697374656e7420746f6b656e0000000000000000000000000000000000000000602082015250565b7f4552433732314d657461646174613a2055524920717565727920666f72206e6f60008201527f6e6578697374656e7420746f6b656e0000000000000000000000000000000000602082015250565b7f4552433732313a20617070726f76616c20746f2063757272656e74206f776e6560008201527f7200000000000000000000000000000000000000000000000000000000000000602082015250565b7f4552433732313a207472616e736665722063616c6c6572206973206e6f74206f60008201527f776e6572206e6f7220617070726f766564000000000000000000000000000000602082015250565b7f43616e2774206d696e7420666f72207468616e203530204e4654277300000000600082015250565b612e6881612758565b8114612e7357600080fd5b50565b612e7f8161276a565b8114612e8a57600080fd5b50565b612e9681612776565b8114612ea157600080fd5b50565b612ead816127c2565b8114612eb857600080fd5b5056fe416e204e465420772f20494420257320686173206265656e206d696e74656420746f202573a264697066735822122085a651b59bd536512be53795aa8d27fc483031b3472051b3efd9fd5371b797f764736f6c63430008010033",
  "linkReferences": {},
  "deployedLinkReferences": {}
}