{
  "_format": "hh-sol-artifact-1",
  "contractName": "MyEpicNFT",
  "sourceName": "contracts/MyEpicNFT.sol",
  "abi": [
    {
      "inputs": [],
      "stateMutability": "nonpayable",
      "type": "constructor"
    },
    {
      "anonymous": false,
      "inputs": [
        {
          "indexed": true,
          "internalType": "address",
          "name": "owner",
          "type": "address"
        },
        {
          "indexed": true,
          "internalType": "address",
          "name": "approved",
          "type": "address"
        },
        {
          "indexed": true,
          "internalType": "uint256",
          "name": "tokenId",
          "type": "uint256"
        }
      ],
      "name": "Approval",
      "type": "event"
    },
    {
      "anonymous": false,
      "inputs": [
        {
          "indexed": true,
          "internalType": "address",
          "name": "owner",
          "type": "address"
        },
        {
          "indexed": true,
          "internalType": "address",
          "name": "operator",
          "type": "address"
        },
        {
          "indexed": false,
          "internalType": "bool",
          "name": "approved",
          "type": "bool"
        }
      ],
      "name": "ApprovalForAll",
      "type": "event"
    },
    {
      "anonymous": false,
      "inputs": [
        {
          "indexed": false,
          "internalType": "address",
          "name": "sender",
          "type": "address"
        },
        {
          "indexed": false,
          "internalType": "uint256",
          "name": "tokenId",
          "type": "uint256"
        }
      ],
      "name": "NewEpicNFTMinted",
      "type": "event"
    },
    {
      "anonymous": false,
      "inputs": [
        {
          "indexed": true,
          "internalType": "address",
          "name": "from",
          "type": "address"
        },
        {
          "indexed": true,
          "internalType": "address",
          "name": "to",
          "type": "address"
        },
        {
          "indexed": true,
          "internalType": "uint256",
          "name": "tokenId",
          "type": "uint256"
        }
      ],
      "name": "Transfer",
      "type": "event"
    },
    {
      "inputs": [
        {
          "internalType": "address",
          "name": "to",
          "type": "address"
        },
        {
          "internalType": "uint256",
          "name": "tokenId",
          "type": "uint256"
        }
      ],
      "name": "approve",
      "outputs": [],
      "stateMutability": "nonpayable",
      "type": "function"
    },
    {
      "inputs": [
        {
          "internalType": "address",
          "name": "owner",
          "type": "address"
        }
      ],
      "name": "balanceOf",
      "outputs": [
        {
          "internalType": "uint256",
          "name": "",
          "type": "uint256"
        }
      ],
      "stateMutability": "view",
      "type": "function"
    },
    {
      "inputs": [
        {
          "internalType": "uint256",
          "name": "tokenId",
          "type": "uint256"
        }
      ],
      "name": "getApproved",
      "outputs": [
        {
          "internalType": "address",
          "name": "",
          "type": "address"
        }
      ],
      "stateMutability": "view",
      "type": "function"
    },
    {
      "inputs": [],
      "name": "getTotalNFTsMintedSoFar",
      "outputs": [
        {
          "internalType": "uint256",
          "name": "",
          "type": "uint256"
        }
      ],
      "stateMutability": "view",
      "type": "function"
    },
    {
      "inputs": [
        {
          "internalType": "address",
          "name": "owner",
          "type": "address"
        },
        {
          "internalType": "address",
          "name": "operator",
          "type": "address"
        }
      ],
      "name": "isApprovedForAll",
      "outputs": [
        {
          "internalType": "bool",
          "name": "",
          "type": "bool"
        }
      ],
      "stateMutability": "view",
      "type": "function"
    },
    {
      "inputs": [],
      "name": "makeAnEpicNFT",
      "outputs": [],
      "stateMutability": "nonpayable",
      "type": "function"
    },
    {
      "inputs": [],
      "name": "name",
      "outputs": [
        {
          "internalType": "string",
          "name": "",
          "type": "string"
        }
      ],
      "stateMutability": "view",
      "type": "function"
    },
    {
      "inputs": [
        {
          "internalType": "uint256",
          "name": "tokenId",
          "type": "uint256"
        }
      ],
      "name": "ownerOf",
      "outputs": [
        {
          "internalType": "address",
          "name": "",
          "type": "address"
        }
      ],
      "stateMutability": "view",
      "type": "function"
    },
    {
      "inputs": [
        {
          "internalType": "uint256",
          "name": "tokenId",
          "type": "uint256"
        }
      ],
      "name": "pickRandomColor",
      "outputs": [
        {
          "internalType": "string",
          "name": "",
          "type": "string"
        }
      ],
      "stateMutability": "view",
      "type": "function"
    },
    {
      "inputs": [
        {
          "internalType": "uint256",
          "name": "tokenId",
          "type": "uint256"
        }
      ],
      "name": "pickRandomFirstWord",
      "outputs": [
        {
          "internalType": "string",
          "name": "",
          "type": "string"
        }
      ],
      "stateMutability": "view",
      "type": "function"
    },
    {
      "inputs": [
        {
          "internalType": "uint256",
          "name": "tokenId",
          "type": "uint256"
        }
      ],
      "name": "pickRandomSecondWord",
      "outputs": [
        {
          "internalType": "string",
          "name": "",
          "type": "string"
        }
      ],
      "stateMutability": "view",
      "type": "function"
    },
    {
      "inputs": [
        {
          "internalType": "uint256",
          "name": "tokenId",
          "type": "uint256"
        }
      ],
      "name": "pickRandomThirdWord",
      "outputs": [
        {
          "internalType": "string",
          "name": "",
          "type": "string"
        }
      ],
      "stateMutability": "view",
      "type": "function"
    },
    {
      "inputs": [
        {
          "internalType": "address",
          "name": "from",
          "type": "address"
        },
        {
          "internalType": "address",
          "name": "to",
          "type": "address"
        },
        {
          "internalType": "uint256",
          "name": "tokenId",
          "type": "uint256"
        }
      ],
      "name": "safeTransferFrom",
      "outputs": [],
      "stateMutability": "nonpayable",
      "type": "function"
    },
    {
      "inputs": [
        {
          "internalType": "address",
          "name": "from",
          "type": "address"
        },
        {
          "internalType": "address",
          "name": "to",
          "type": "address"
        },
        {
          "internalType": "uint256",
          "name": "tokenId",
          "type": "uint256"
        },
        {
          "internalType": "bytes",
          "name": "_data",
          "type": "bytes"
        }
      ],
      "name": "safeTransferFrom",
      "outputs": [],
      "stateMutability": "nonpayable",
      "type": "function"
    },
    {
      "inputs": [
        {
          "internalType": "address",
          "name": "operator",
          "type": "address"
        },
        {
          "internalType": "bool",
          "name": "approved",
          "type": "bool"
        }
      ],
      "name": "setApprovalForAll",
      "outputs": [],
      "stateMutability": "nonpayable",
      "type": "function"
    },
    {
      "inputs": [
        {
          "internalType": "bytes4",
          "name": "interfaceId",
          "type": "bytes4"
        }
      ],
      "name": "supportsInterface",
      "outputs": [
        {
          "internalType": "bool",
          "name": "",
          "type": "bool"
        }
      ],
      "stateMutability": "view",
      "type": "function"
    },
    {
      "inputs": [],
      "name": "symbol",
      "outputs": [
        {
          "internalType": "string",
          "name": "",
          "type": "string"
        }
      ],
      "stateMutability": "view",
      "type": "function"
    },
    {
      "inputs": [
        {
          "internalType": "uint256",
          "name": "tokenId",
          "type": "uint256"
        }
      ],
      "name": "tokenURI",
      "outputs": [
        {
          "internalType": "string",
          "name": "",
          "type": "string"
        }
      ],
      "stateMutability": "view",
      "type": "function"
    },
    {
      "inputs": [
        {
          "internalType": "address",
          "name": "from",
          "type": "address"
        },
        {
          "internalType": "address",
          "name": "to",
          "type": "address"
        },
        {
          "internalType": "uint256",
          "name": "tokenId",
          "type": "uint256"
        }
      ],
      "name": "transferFrom",
      "outputs": [],
      "stateMutability": "nonpayable",
      "type": "function"
    }
  ],
  "bytecode": "0x60806040526040518060a00160405280607781526020016200507760779139600890805190602001906200003592919062000fca565b506040518060e0016040528060b3815260200162004fc460b39139600990805190602001906200006792919062000fca565b506040518061010001604052806040518060400160405280600381526020017f726564000000000000000000000000000000000000000000000000000000000081525081526020016040518060400160405280600481526020017f626c75650000000000000000000000000000000000000000000000000000000081525081526020016040518060400160405280600481526020017f677265790000000000000000000000000000000000000000000000000000000081525081526020016040518060400160405280600681526020017f79656c6c6f77000000000000000000000000000000000000000000000000000081525081526020016040518060400160405280600581526020017f677265656e00000000000000000000000000000000000000000000000000000081525081526020016040518060400160405280600681526020017f707572706c65000000000000000000000000000000000000000000000000000081525081526020016040518060400160405280600681526020017f6f72616e6765000000000000000000000000000000000000000000000000000081525081526020016040518060400160405280600581526020017f62726f776e000000000000000000000000000000000000000000000000000000815250815250600a9060086200025c9291906200105b565b506040518061022001604052806040518060400160405280600381526020017f426967000000000000000000000000000000000000000000000000000000000081525081526020016040518060400160405280600381526020017f466174000000000000000000000000000000000000000000000000000000000081525081526020016040518060400160405280600581526020017f536d616c6c00000000000000000000000000000000000000000000000000000081525081526020016040518060400160405280600481526020017f54616c6c0000000000000000000000000000000000000000000000000000000081525081526020016040518060400160405280600981526020017f42656175746966756c000000000000000000000000000000000000000000000081525081526020016040518060400160405280600b81526020017f456e6c69676874656e656400000000000000000000000000000000000000000081525081526020016040518060400160405280600481526020017f5765616b0000000000000000000000000000000000000000000000000000000081525081526020016040518060400160405280600981526020017f44656c6963696f7573000000000000000000000000000000000000000000000081525081526020016040518060400160405280600481526020017f486172640000000000000000000000000000000000000000000000000000000081525081526020016040518060400160405280600481526020017f536f66740000000000000000000000000000000000000000000000000000000081525081526020016040518060400160405280600581526020017f46616e637900000000000000000000000000000000000000000000000000000081525081526020016040518060400160405280600681526020017f536d656c6c79000000000000000000000000000000000000000000000000000081525081526020016040518060400160405280600a81526020017f44697367757374696e670000000000000000000000000000000000000000000081525081526020016040518060400160405280600781526020017f5068616c6c69630000000000000000000000000000000000000000000000000081525081526020016040518060400160405280600681526020017f537065656479000000000000000000000000000000000000000000000000000081525081526020016040518060400160405280600b81526020017f54616e74616c697a696e6700000000000000000000000000000000000000000081525081526020016040518060400160405280600681526020017f53756c7472790000000000000000000000000000000000000000000000000000815250815250600b90601162000664929190620010c2565b50604051806101e001604052806040518060400160405280600881526020017f5374696e67696e6700000000000000000000000000000000000000000000000081525081526020016040518060400160405280600881526020017f547769726c696e6700000000000000000000000000000000000000000000000081525081526020016040518060400160405280600681526020017f446976696e67000000000000000000000000000000000000000000000000000081525081526020016040518060400160405280600781526020017f4d656c74696e670000000000000000000000000000000000000000000000000081525081526020016040518060400160405280600781526020017f53696e6b696e670000000000000000000000000000000000000000000000000081525081526020016040518060400160405280600781526020017f44697070696e670000000000000000000000000000000000000000000000000081525081526020016040518060400160405280600781526020017f4675636b696e670000000000000000000000000000000000000000000000000081525081526020016040518060400160405280600681526020017f576176696e67000000000000000000000000000000000000000000000000000081525081526020016040518060400160405280600881526020017f4669676874696e6700000000000000000000000000000000000000000000000081525081526020016040518060400160405280600781526020017f46616c6c696e670000000000000000000000000000000000000000000000000081525081526020016040518060400160405280600881526020017f4c61756768696e6700000000000000000000000000000000000000000000000081525081526020016040518060400160405280600781526020017f53756c6b696e670000000000000000000000000000000000000000000000000081525081526020016040518060400160405280600881526020017f447265616d696e6700000000000000000000000000000000000000000000000081525081526020016040518060400160405280600781526020017f50697373696e670000000000000000000000000000000000000000000000000081525081526020016040518060400160405280600781526020017f526f6c6c696e6700000000000000000000000000000000000000000000000000815250815250600c90600f620009f692919062001129565b506040518061022001604052806040518060400160405280600781526020017f4f63746f7075730000000000000000000000000000000000000000000000000081525081526020016040518060400160405280600481526020017f547265650000000000000000000000000000000000000000000000000000000081525081526020016040518060400160405280600581526020017f436c6f756400000000000000000000000000000000000000000000000000000081525081526020016040518060400160405280600781526020017f4d6f6e737465720000000000000000000000000000000000000000000000000081525081526020016040518060400160405280600681526020017f426565746c65000000000000000000000000000000000000000000000000000081525081526020016040518060400160405280600481526020017f426172640000000000000000000000000000000000000000000000000000000081525081526020016040518060400160405280600681526020017f596565747573000000000000000000000000000000000000000000000000000081525081526020016040518060400160405280600681526020017f44616e676572000000000000000000000000000000000000000000000000000081525081526020016040518060400160405280600981526020017f576869726c706f6f6c000000000000000000000000000000000000000000000081525081526020016040518060400160405280600781526020017f426f756c6465720000000000000000000000000000000000000000000000000081525081526020016040518060400160405280600981526020017f4176616c616e636865000000000000000000000000000000000000000000000081525081526020016040518060400160405280600581526020017f4a656c6c6f00000000000000000000000000000000000000000000000000000081525081526020016040518060400160405280600881526020017f5374696e6772617900000000000000000000000000000000000000000000000081525081526020016040518060400160405280600681526020017f427564646861000000000000000000000000000000000000000000000000000081525081526020016040518060400160405280600381526020017f446f67000000000000000000000000000000000000000000000000000000000081525081526020016040518060400160405280600681526020017f466572726574000000000000000000000000000000000000000000000000000081525081526020016040518060400160405280600581526020017f5472617368000000000000000000000000000000000000000000000000000000815250815250600d90601162000dfe929190620010c2565b5034801562000e0c57600080fd5b506040518060400160405280600981526020017f5371756172654e465400000000000000000000000000000000000000000000008152506040518060400160405280600681526020017f5351554152450000000000000000000000000000000000000000000000000000815250816000908051906020019062000e9192919062000fca565b50806001908051906020019062000eaa92919062000fca565b50505062000ef86040518060400160405280601c81526020017f4d79457069634e465420636f6e7472616374206465706c6f796564210000000081525062000efe60201b620012411760201c565b6200134a565b62000f9e8160405160240162000f1591906200125e565b6040516020818303038152906040527f41304fac000000000000000000000000000000000000000000000000000000007bffffffffffffffffffffffffffffffffffffffffffffffffffffffff19166020820180517bffffffffffffffffffffffffffffffffffffffffffffffffffffffff838183161783525050505062000fa160201b60201c565b50565b60008151905060006a636f6e736f6c652e6c6f679050602083016000808483855afa5050505050565b82805462000fd890620012d4565b90600052602060002090601f01602090048101928262000ffc576000855562001048565b82601f106200101757805160ff191683800117855562001048565b8280016001018555821562001048579182015b82811115620010475782518255916020019190600101906200102a565b5b50905062001057919062001190565b5090565b828054828255906000526020600020908101928215620010af579160200282015b82811115620010ae5782518290805190602001906200109d92919062000fca565b50916020019190600101906200107c565b5b509050620010be9190620011af565b5090565b82805482825590600052602060002090810192821562001116579160200282015b82811115620011155782518290805190602001906200110492919062000fca565b5091602001919060010190620010e3565b5b509050620011259190620011af565b5090565b8280548282559060005260206000209081019282156200117d579160200282015b828111156200117c5782518290805190602001906200116b92919062000fca565b50916020019190600101906200114a565b5b5090506200118c9190620011af565b5090565b5b80821115620011ab57600081600090555060010162001191565b5090565b5b80821115620011d35760008181620011c99190620011d7565b50600101620011b0565b5090565b508054620011e590620012d4565b6000825580601f10620011f957506200121a565b601f01602090049060005260206000209081019062001219919062001190565b5b50565b60006200122a8262001282565b6200123681856200128d565b9350620012488185602086016200129e565b620012538162001339565b840191505092915050565b600060208201905081810360008301526200127a81846200121d565b905092915050565b600081519050919050565b600082825260208201905092915050565b60005b83811015620012be578082015181840152602081019050620012a1565b83811115620012ce576000848401525b50505050565b60006002820490506001821680620012ed57607f821691505b602082108114156200130457620013036200130a565b5b50919050565b7f4e487b7100000000000000000000000000000000000000000000000000000000600052602260045260246000fd5b6000601f19601f8301169050919050565b613c6a806200135a6000396000f3fe608060405234801561001057600080fd5b50600436106101215760003560e01c80636352211e116100ad578063b88d4fde11610071578063b88d4fde14610340578063c575757a1461035c578063c87b56dd1461038c578063de9d132f146103bc578063e985e9c5146103c657610121565b80636352211e1461027657806370a08231146102a657806395d89b41146102d6578063a22cb465146102f4578063b187301f1461031057610121565b8063095ea7b3116100f4578063095ea7b3146101c257806323b872dd146101de5780632de38d68146101fa57806342842e0e1461022a578063514dc8c61461024657610121565b806301ffc9a714610126578063060475901461015657806306fdde0314610174578063081812fc14610192575b600080fd5b610140600480360381019061013b919061266d565b6103f6565b60405161014d9190612e10565b60405180910390f35b61015e6104d8565b60405161016b91906130ab565b60405180910390f35b61017c6104e9565b6040516101899190612e2b565b60405180910390f35b6101ac60048036038101906101a791906126bf565b61057b565b6040516101b99190612d80565b60405180910390f35b6101dc60048036038101906101d79190612631565b610600565b005b6101f860048036038101906101f3919061252b565b610718565b005b610214600480360381019061020f91906126bf565b610778565b6040516102219190612e2b565b60405180910390f35b610244600480360381019061023f919061252b565b610896565b005b610260600480360381019061025b91906126bf565b6108b6565b60405161026d9190612e2b565b60405180910390f35b610290600480360381019061028b91906126bf565b6109d4565b60405161029d9190612d80565b60405180910390f35b6102c060048036038101906102bb91906124c6565b610a86565b6040516102cd91906130ab565b60405180910390f35b6102de610b3e565b6040516102eb9190612e2b565b60405180910390f35b61030e600480360381019061030991906125f5565b610bd0565b005b61032a600480360381019061032591906126bf565b610be6565b6040516103379190612e2b565b60405180910390f35b61035a6004803603810190610355919061257a565b610d04565b005b610376600480360381019061037191906126bf565b610d66565b6040516103839190612e2b565b60405180910390f35b6103a660048036038101906103a191906126bf565b610e84565b6040516103b39190612e2b565b60405180910390f35b6103c4610fd6565b005b6103e060048036038101906103db91906124ef565b6111ad565b6040516103ed9190612e10565b60405180910390f35b60007f80ac58cd000000000000000000000000000000000000000000000000000000007bffffffffffffffffffffffffffffffffffffffffffffffffffffffff1916827bffffffffffffffffffffffffffffffffffffffffffffffffffffffff191614806104c157507f5b5e139f000000000000000000000000000000000000000000000000000000007bffffffffffffffffffffffffffffffffffffffffffffffffffffffff1916827bffffffffffffffffffffffffffffffffffffffffffffffffffffffff1916145b806104d157506104d0826112da565b5b9050919050565b60006104e46007611344565b905090565b6060600080546104f89061333f565b80601f01602080910402602001604051908101604052809291908181526020018280546105249061333f565b80156105715780601f1061054657610100808354040283529160200191610571565b820191906000526020600020905b81548152906001019060200180831161055457829003601f168201915b5050505050905090565b600061058682611352565b6105c5576040517f08c379a00000000000000000000000000000000000000000000000000000000081526004016105bc9061300b565b60405180910390fd5b6004600083815260200190815260200160002060009054906101000a900473ffffffffffffffffffffffffffffffffffffffff169050919050565b600061060b826109d4565b90508073ffffffffffffffffffffffffffffffffffffffff168373ffffffffffffffffffffffffffffffffffffffff16141561067c576040517f08c379a00000000000000000000000000000000000000000000000000000000081526004016106739061304b565b60405180910390fd5b8073ffffffffffffffffffffffffffffffffffffffff1661069b6113be565b73ffffffffffffffffffffffffffffffffffffffff1614806106ca57506106c9816106c46113be565b6111ad565b5b610709576040517f08c379a000000000000000000000000000000000000000000000000000000000815260040161070090612f4b565b60405180910390fd5b61071383836113c6565b505050565b6107296107236113be565b8261147f565b610768576040517f08c379a000000000000000000000000000000000000000000000000000000000815260040161075f9061306b565b60405180910390fd5b61077383838361155d565b505050565b606060006107ac610788846117c4565b6040516020016107989190612d1a565b604051602081830303815290604052611971565b9050600b80549050816107bf91906133eb565b9050600b81815481106107fb577f4e487b7100000000000000000000000000000000000000000000000000000000600052603260045260246000fd5b9060005260206000200180546108109061333f565b80601f016020809104026020016040519081016040528092919081815260200182805461083c9061333f565b80156108895780601f1061085e57610100808354040283529160200191610889565b820191906000526020600020905b81548152906001019060200180831161086c57829003601f168201915b5050505050915050919050565b6108b183838360405180602001604052806000815250610d04565b505050565b606060006108ea6108c6846117c4565b6040516020016108d69190612d5e565b604051602081830303815290604052611971565b9050600a80549050816108fd91906133eb565b9050600a8181548110610939577f4e487b7100000000000000000000000000000000000000000000000000000000600052603260045260246000fd5b90600052602060002001805461094e9061333f565b80601f016020809104026020016040519081016040528092919081815260200182805461097a9061333f565b80156109c75780601f1061099c576101008083540402835291602001916109c7565b820191906000526020600020905b8154815290600101906020018083116109aa57829003601f168201915b5050505050915050919050565b6000806002600084815260200190815260200160002060009054906101000a900473ffffffffffffffffffffffffffffffffffffffff169050600073ffffffffffffffffffffffffffffffffffffffff168173ffffffffffffffffffffffffffffffffffffffff161415610a7d576040517f08c379a0000000000000000000000000000000000000000000000000000000008152600401610a7490612f8b565b60405180910390fd5b80915050919050565b60008073ffffffffffffffffffffffffffffffffffffffff168273ffffffffffffffffffffffffffffffffffffffff161415610af7576040517f08c379a0000000000000000000000000000000000000000000000000000000008152600401610aee90612f6b565b60405180910390fd5b600360008373ffffffffffffffffffffffffffffffffffffffff1673ffffffffffffffffffffffffffffffffffffffff168152602001908152602001600020549050919050565b606060018054610b4d9061333f565b80601f0160208091040260200160405190810160405280929190818152602001828054610b799061333f565b8015610bc65780601f10610b9b57610100808354040283529160200191610bc6565b820191906000526020600020905b815481529060010190602001808311610ba957829003601f168201915b5050505050905090565b610be2610bdb6113be565b83836119a4565b5050565b60606000610c1a610bf6846117c4565b604051602001610c069190612cb3565b604051602081830303815290604052611971565b9050600c8054905081610c2d91906133eb565b9050600c8181548110610c69577f4e487b7100000000000000000000000000000000000000000000000000000000600052603260045260246000fd5b906000526020600020018054610c7e9061333f565b80601f0160208091040260200160405190810160405280929190818152602001828054610caa9061333f565b8015610cf75780601f10610ccc57610100808354040283529160200191610cf7565b820191906000526020600020905b815481529060010190602001808311610cda57829003601f168201915b5050505050915050919050565b610d15610d0f6113be565b8361147f565b610d54576040517f08c379a0000000000000000000000000000000000000000000000000000000008152600401610d4b9061306b565b60405180910390fd5b610d6084848484611b11565b50505050565b60606000610d9a610d76846117c4565b604051602001610d869190612c91565b604051602081830303815290604052611971565b9050600d8054905081610dad91906133eb565b9050600d8181548110610de9577f4e487b7100000000000000000000000000000000000000000000000000000000600052603260045260246000fd5b906000526020600020018054610dfe9061333f565b80601f0160208091040260200160405190810160405280929190818152602001828054610e2a9061333f565b8015610e775780601f10610e4c57610100808354040283529160200191610e77565b820191906000526020600020905b815481529060010190602001808311610e5a57829003601f168201915b5050505050915050919050565b6060610e8f82611352565b610ece576040517f08c379a0000000000000000000000000000000000000000000000000000000008152600401610ec590612feb565b60405180910390fd5b6000600660008481526020019081526020016000208054610eee9061333f565b80601f0160208091040260200160405190810160405280929190818152602001828054610f1a9061333f565b8015610f675780601f10610f3c57610100808354040283529160200191610f67565b820191906000526020600020905b815481529060010190602001808311610f4a57829003601f168201915b505050505090506000610f78611b6d565b9050600081511415610f8e578192505050610fd1565b600082511115610fc3578082604051602001610fab929190612bdc565b60405160208183030381529060405292505050610fd1565b610fcc84611b84565b925050505b919050565b6000610fe26007611344565b905060328110611027576040517f08c379a000000000000000000000000000000000000000000000000000000000815260040161101e9061308b565b60405180910390fd5b60006008611034836108b6565b600960405160200161104893929190612c60565b6040516020818303038152906040529050600061106483610778565b9050600061107184610be6565b9050600061107e85610d66565b9050600083838360405160200161109793929190612c00565b6040516020818303038152906040529050600085826040516020016110bd929190612c31565b60405160208183030381529060405290506000611102836110dd84611c2b565b6040516020016110ee929190612cd5565b604051602081830303815290604052611c2b565b90506000816040516020016111179190612d3c565b6040516020818303038152906040529050611132338a611de9565b61113c8982611e07565b61115f604051806060016040528060258152602001613bd0602591398a33611e7b565b6111696007611f1a565b7febb98688741ffa4c7589bf325de30cf7becb63de567842e1ccdb6cb949fdc82c338a60405161119a929190612de7565b60405180910390a1505050505050505050565b6000600560008473ffffffffffffffffffffffffffffffffffffffff1673ffffffffffffffffffffffffffffffffffffffff16815260200190815260200160002060008373ffffffffffffffffffffffffffffffffffffffff1673ffffffffffffffffffffffffffffffffffffffff16815260200190815260200160002060009054906101000a900460ff16905092915050565b6112d7816040516024016112559190612e2b565b6040516020818303038152906040527f41304fac000000000000000000000000000000000000000000000000000000007bffffffffffffffffffffffffffffffffffffffffffffffffffffffff19166020820180517bffffffffffffffffffffffffffffffffffffffffffffffffffffffff8381831617835250505050611f30565b50565b60007f01ffc9a7000000000000000000000000000000000000000000000000000000007bffffffffffffffffffffffffffffffffffffffffffffffffffffffff1916827bffffffffffffffffffffffffffffffffffffffffffffffffffffffff1916149050919050565b600081600001549050919050565b60008073ffffffffffffffffffffffffffffffffffffffff166002600084815260200190815260200160002060009054906101000a900473ffffffffffffffffffffffffffffffffffffffff1673ffffffffffffffffffffffffffffffffffffffff1614159050919050565b600033905090565b816004600083815260200190815260200160002060006101000a81548173ffffffffffffffffffffffffffffffffffffffff021916908373ffffffffffffffffffffffffffffffffffffffff160217905550808273ffffffffffffffffffffffffffffffffffffffff16611439836109d4565b73ffffffffffffffffffffffffffffffffffffffff167f8c5be1e5ebec7d5bd14f71427d1e84f3dd0314c0f7b2291e5b200ac8c7c3b92560405160405180910390a45050565b600061148a82611352565b6114c9576040517f08c379a00000000000000000000000000000000000000000000000000000000081526004016114c090612f2b565b60405180910390fd5b60006114d4836109d4565b90508073ffffffffffffffffffffffffffffffffffffffff168473ffffffffffffffffffffffffffffffffffffffff16148061154357508373ffffffffffffffffffffffffffffffffffffffff1661152b8461057b565b73ffffffffffffffffffffffffffffffffffffffff16145b80611554575061155381856111ad565b5b91505092915050565b8273ffffffffffffffffffffffffffffffffffffffff1661157d826109d4565b73ffffffffffffffffffffffffffffffffffffffff16146115d3576040517f08c379a00000000000000000000000000000000000000000000000000000000081526004016115ca90612eab565b60405180910390fd5b600073ffffffffffffffffffffffffffffffffffffffff168273ffffffffffffffffffffffffffffffffffffffff161415611643576040517f08c379a000000000000000000000000000000000000000000000000000000000815260040161163a90612eeb565b60405180910390fd5b61164e838383611f59565b6116596000826113c6565b6001600360008573ffffffffffffffffffffffffffffffffffffffff1673ffffffffffffffffffffffffffffffffffffffff16815260200190815260200160002060008282546116a99190613255565b925050819055506001600360008473ffffffffffffffffffffffffffffffffffffffff1673ffffffffffffffffffffffffffffffffffffffff16815260200190815260200160002060008282546117009190613174565b92505081905550816002600083815260200190815260200160002060006101000a81548173ffffffffffffffffffffffffffffffffffffffff021916908373ffffffffffffffffffffffffffffffffffffffff160217905550808273ffffffffffffffffffffffffffffffffffffffff168473ffffffffffffffffffffffffffffffffffffffff167fddf252ad1be2c89b69c2b068fc378daa952ba7f163c4a11628f55a4df523b3ef60405160405180910390a46117bf838383611f5e565b505050565b6060600082141561180c576040518060400160405280600181526020017f3000000000000000000000000000000000000000000000000000000000000000815250905061196c565b600082905060005b6000821461183e578080611827906133a2565b915050600a8261183791906131ca565b9150611814565b60008167ffffffffffffffff811115611880577f4e487b7100000000000000000000000000000000000000000000000000000000600052604160045260246000fd5b6040519080825280601f01601f1916602001820160405280156118b25781602001600182028036833780820191505090505b5090505b60008514611965576001826118cb9190613255565b9150600a856118da91906133eb565b60306118e69190613174565b60f81b818381518110611922577f4e487b7100000000000000000000000000000000000000000000000000000000600052603260045260246000fd5b60200101907effffffffffffffffffffffffffffffffffffffffffffffffffffffffffffff1916908160001a905350600a8561195e91906131ca565b94506118b6565b8093505050505b919050565b6000816040516020016119849190612bc5565b6040516020818303038152906040528051906020012060001c9050919050565b8173ffffffffffffffffffffffffffffffffffffffff168373ffffffffffffffffffffffffffffffffffffffff161415611a13576040517f08c379a0000000000000000000000000000000000000000000000000000000008152600401611a0a90612f0b565b60405180910390fd5b80600560008573ffffffffffffffffffffffffffffffffffffffff1673ffffffffffffffffffffffffffffffffffffffff16815260200190815260200160002060008473ffffffffffffffffffffffffffffffffffffffff1673ffffffffffffffffffffffffffffffffffffffff16815260200190815260200160002060006101000a81548160ff0219169083151502179055508173ffffffffffffffffffffffffffffffffffffffff168373ffffffffffffffffffffffffffffffffffffffff167f17307eab39ab6107e8899845ad3d59bd9653f200f220920489ca2b5937696c3183604051611b049190612e10565b60405180910390a3505050565b611b1c84848461155d565b611b2884848484611f63565b611b67576040517f08c379a0000000000000000000000000000000000000000000000000000000008152600401611b5e90612e8b565b60405180910390fd5b50505050565b606060405180602001604052806000815250905090565b6060611b8f82611352565b611bce576040517f08c379a0000000000000000000000000000000000000000000000000000000008152600401611bc59061302b565b60405180910390fd5b6000611bd8611b6d565b90506000815111611bf85760405180602001604052806000815250611c23565b80611c02846117c4565b604051602001611c13929190612bdc565b6040516020818303038152906040525b915050919050565b60606000825190506000811415611c545760405180602001604052806000815250915050611de4565b60006003600283611c659190613174565b611c6f91906131ca565b6004611c7b91906131fb565b90506000602082611c8c9190613174565b67ffffffffffffffff811115611ccb577f4e487b7100000000000000000000000000000000000000000000000000000000600052604160045260246000fd5b6040519080825280601f01601f191660200182016040528015611cfd5781602001600182028036833780820191505090505b5090506000604051806060016040528060408152602001613bf5604091399050600181016020830160005b86811015611da15760038101905062ffffff818a015116603f8160121c168401518060081b905060ff603f83600c1c1686015116810190508060081b905060ff603f8360061c1686015116810190508060081b905060ff603f831686015116810190508060e01b90508084526004840193505050611d28565b506003860660018114611dbb5760028114611dcb57611dd6565b613d3d60f01b6002830352611dd6565b603d60f81b60018303525b508484525050819450505050505b919050565b611e038282604051806020016040528060008152506120fa565b5050565b611e1082611352565b611e4f576040517f08c379a0000000000000000000000000000000000000000000000000000000008152600401611e4690612fab565b60405180910390fd5b80600660008481526020019081526020016000209080519060200190611e76929190612352565b505050565b611f15838383604051602401611e9393929190612e4d565b6040516020818303038152906040527fe3849f79000000000000000000000000000000000000000000000000000000007bffffffffffffffffffffffffffffffffffffffffffffffffffffffff19166020820180517bffffffffffffffffffffffffffffffffffffffffffffffffffffffff8381831617835250505050611f30565b505050565b6001816000016000828254019250508190555050565b60008151905060006a636f6e736f6c652e6c6f679050602083016000808483855afa5050505050565b505050565b505050565b6000611f848473ffffffffffffffffffffffffffffffffffffffff16612155565b156120ed578373ffffffffffffffffffffffffffffffffffffffff1663150b7a02611fad6113be565b8786866040518563ffffffff1660e01b8152600401611fcf9493929190612d9b565b602060405180830381600087803b158015611fe957600080fd5b505af192505050801561201a57506040513d601f19601f820116820180604052508101906120179190612696565b60015b61209d573d806000811461204a576040519150601f19603f3d011682016040523d82523d6000602084013e61204f565b606091505b50600081511415612095576040517f08c379a000000000000000000000000000000000000000000000000000000000815260040161208c90612e8b565b60405180910390fd5b805181602001fd5b63150b7a0260e01b7bffffffffffffffffffffffffffffffffffffffffffffffffffffffff1916817bffffffffffffffffffffffffffffffffffffffffffffffffffffffff1916149150506120f2565b600190505b949350505050565b6121048383612178565b6121116000848484611f63565b612150576040517f08c379a000000000000000000000000000000000000000000000000000000000815260040161214790612e8b565b60405180910390fd5b505050565b6000808273ffffffffffffffffffffffffffffffffffffffff163b119050919050565b600073ffffffffffffffffffffffffffffffffffffffff168273ffffffffffffffffffffffffffffffffffffffff1614156121e8576040517f08c379a00000000000000000000000000000000000000000000000000000000081526004016121df90612fcb565b60405180910390fd5b6121f181611352565b15612231576040517f08c379a000000000000000000000000000000000000000000000000000000000815260040161222890612ecb565b60405180910390fd5b61223d60008383611f59565b6001600360008473ffffffffffffffffffffffffffffffffffffffff1673ffffffffffffffffffffffffffffffffffffffff168152602001908152602001600020600082825461228d9190613174565b92505081905550816002600083815260200190815260200160002060006101000a81548173ffffffffffffffffffffffffffffffffffffffff021916908373ffffffffffffffffffffffffffffffffffffffff160217905550808273ffffffffffffffffffffffffffffffffffffffff16600073ffffffffffffffffffffffffffffffffffffffff167fddf252ad1be2c89b69c2b068fc378daa952ba7f163c4a11628f55a4df523b3ef60405160405180910390a461234e60008383611f5e565b5050565b82805461235e9061333f565b90600052602060002090601f01602090048101928261238057600085556123c7565b82601f1061239957805160ff19168380011785556123c7565b828001600101855582156123c7579182015b828111156123c65782518255916020019190600101906123ab565b5b5090506123d491906123d8565b5090565b5b808211156123f15760008160009055506001016123d9565b5090565b6000612408612403846130eb565b6130c6565b90508281526020810184848401111561242057600080fd5b61242b8482856132fd565b509392505050565b60008135905061244281613b73565b92915050565b60008135905061245781613b8a565b92915050565b60008135905061246c81613ba1565b92915050565b60008151905061248181613ba1565b92915050565b600082601f83011261249857600080fd5b81356124a88482602086016123f5565b91505092915050565b6000813590506124c081613bb8565b92915050565b6000602082840312156124d857600080fd5b60006124e684828501612433565b91505092915050565b6000806040838503121561250257600080fd5b600061251085828601612433565b925050602061252185828601612433565b9150509250929050565b60008060006060848603121561254057600080fd5b600061254e86828701612433565b935050602061255f86828701612433565b9250506040612570868287016124b1565b9150509250925092565b6000806000806080858703121561259057600080fd5b600061259e87828801612433565b94505060206125af87828801612433565b93505060406125c0878288016124b1565b925050606085013567ffffffffffffffff8111156125dd57600080fd5b6125e987828801612487565b91505092959194509250565b6000806040838503121561260857600080fd5b600061261685828601612433565b925050602061262785828601612448565b9150509250929050565b6000806040838503121561264457600080fd5b600061265285828601612433565b9250506020612663858286016124b1565b9150509250929050565b60006020828403121561267f57600080fd5b600061268d8482850161245d565b91505092915050565b6000602082840312156126a857600080fd5b60006126b684828501612472565b91505092915050565b6000602082840312156126d157600080fd5b60006126df848285016124b1565b91505092915050565b6126f181613289565b82525050565b6127008161329b565b82525050565b600061271182613131565b61271b8185613147565b935061272b81856020860161330c565b612734816134d8565b840191505092915050565b600061274a8261313c565b6127548185613158565b935061276481856020860161330c565b61276d816134d8565b840191505092915050565b60006127838261313c565b61278d8185613169565b935061279d81856020860161330c565b80840191505092915050565b600081546127b68161333f565b6127c08186613169565b945060018216600081146127db57600181146127ec5761281f565b60ff1983168652818601935061281f565b6127f58561311c565b60005b83811015612817578154818901526001820191506020810190506127f8565b838801955050505b50505092915050565b6000612835603283613158565b9150612840826134e9565b604082019050919050565b6000612858602583613158565b915061286382613538565b604082019050919050565b600061287b601c83613158565b915061288682613587565b602082019050919050565b600061289e600a83613169565b91506128a9826135b0565b600a82019050919050565b60006128c1602483613158565b91506128cc826135d9565b604082019050919050565b60006128e4601983613158565b91506128ef82613628565b602082019050919050565b6000612907606383613169565b915061291282613651565b606382019050919050565b600061292a600b83613169565b9150612935826136ec565b600b82019050919050565b600061294d602c83613158565b915061295882613715565b604082019050919050565b6000612970600d83613169565b915061297b82613764565b600d82019050919050565b6000612993603883613158565b915061299e8261378d565b604082019050919050565b60006129b6602a83613158565b91506129c1826137dc565b604082019050919050565b60006129d9602983613158565b91506129e48261382b565b604082019050919050565b60006129fc602e83613158565b9150612a078261387a565b604082019050919050565b6000612a1f600283613169565b9150612a2a826138c9565b600282019050919050565b6000612a42602083613158565b9150612a4d826138f2565b602082019050919050565b6000612a65603183613158565b9150612a708261391b565b604082019050919050565b6000612a88602c83613158565b9150612a938261396a565b604082019050919050565b6000612aab602f83613158565b9150612ab6826139b9565b604082019050919050565b6000612ace600a83613169565b9150612ad982613a08565b600a82019050919050565b6000612af1602183613158565b9150612afc82613a31565b604082019050919050565b6000612b14600a83613169565b9150612b1f82613a80565b600a82019050919050565b6000612b37601d83613169565b9150612b4282613aa9565b601d82019050919050565b6000612b5a603183613158565b9150612b6582613ad2565b604082019050919050565b6000612b7d601c83613158565b9150612b8882613b21565b602082019050919050565b6000612ba0600583613169565b9150612bab82613b4a565b600582019050919050565b612bbf816132f3565b82525050565b6000612bd18284612778565b915081905092915050565b6000612be88285612778565b9150612bf48284612778565b91508190509392505050565b6000612c0c8286612778565b9150612c188285612778565b9150612c248284612778565b9150819050949350505050565b6000612c3d8285612778565b9150612c498284612778565b9150612c5482612963565b91508190509392505050565b6000612c6c82866127a9565b9150612c788285612778565b9150612c8482846127a9565b9150819050949350505050565b6000612c9c82612891565b9150612ca88284612778565b915081905092915050565b6000612cbe8261291d565b9150612cca8284612778565b915081905092915050565b6000612ce082612ac1565b9150612cec8285612778565b9150612cf7826128fa565b9150612d038284612778565b9150612d0e82612a12565b91508190509392505050565b6000612d2582612b07565b9150612d318284612778565b915081905092915050565b6000612d4782612b2a565b9150612d538284612778565b915081905092915050565b6000612d6982612b93565b9150612d758284612778565b915081905092915050565b6000602082019050612d9560008301846126e8565b92915050565b6000608082019050612db060008301876126e8565b612dbd60208301866126e8565b612dca6040830185612bb6565b8181036060830152612ddc8184612706565b905095945050505050565b6000604082019050612dfc60008301856126e8565b612e096020830184612bb6565b9392505050565b6000602082019050612e2560008301846126f7565b92915050565b60006020820190508181036000830152612e45818461273f565b905092915050565b60006060820190508181036000830152612e67818661273f565b9050612e766020830185612bb6565b612e8360408301846126e8565b949350505050565b60006020820190508181036000830152612ea481612828565b9050919050565b60006020820190508181036000830152612ec48161284b565b9050919050565b60006020820190508181036000830152612ee48161286e565b9050919050565b60006020820190508181036000830152612f04816128b4565b9050919050565b60006020820190508181036000830152612f24816128d7565b9050919050565b60006020820190508181036000830152612f4481612940565b9050919050565b60006020820190508181036000830152612f6481612986565b9050919050565b60006020820190508181036000830152612f84816129a9565b9050919050565b60006020820190508181036000830152612fa4816129cc565b9050919050565b60006020820190508181036000830152612fc4816129ef565b9050919050565b60006020820190508181036000830152612fe481612a35565b9050919050565b6000602082019050818103600083015261300481612a58565b9050919050565b6000602082019050818103600083015261302481612a7b565b9050919050565b6000602082019050818103600083015261304481612a9e565b9050919050565b6000602082019050818103600083015261306481612ae4565b9050919050565b6000602082019050818103600083015261308481612b4d565b9050919050565b600060208201905081810360008301526130a481612b70565b9050919050565b60006020820190506130c06000830184612bb6565b92915050565b60006130d06130e1565b90506130dc8282613371565b919050565b6000604051905090565b600067ffffffffffffffff821115613106576131056134a9565b5b61310f826134d8565b9050602081019050919050565b60008190508160005260206000209050919050565b600081519050919050565b600081519050919050565b600082825260208201905092915050565b600082825260208201905092915050565b600081905092915050565b600061317f826132f3565b915061318a836132f3565b9250827fffffffffffffffffffffffffffffffffffffffffffffffffffffffffffffffff038211156131bf576131be61341c565b5b828201905092915050565b60006131d5826132f3565b91506131e0836132f3565b9250826131f0576131ef61344b565b5b828204905092915050565b6000613206826132f3565b9150613211836132f3565b9250817fffffffffffffffffffffffffffffffffffffffffffffffffffffffffffffffff048311821515161561324a5761324961341c565b5b828202905092915050565b6000613260826132f3565b915061326b836132f3565b92508282101561327e5761327d61341c565b5b828203905092915050565b6000613294826132d3565b9050919050565b60008115159050919050565b60007fffffffff0000000000000000000000000000000000000000000000000000000082169050919050565b600073ffffffffffffffffffffffffffffffffffffffff82169050919050565b6000819050919050565b82818337600083830152505050565b60005b8381101561332a57808201518184015260208101905061330f565b83811115613339576000848401525b50505050565b6000600282049050600182168061335757607f821691505b6020821081141561336b5761336a61347a565b5b50919050565b61337a826134d8565b810181811067ffffffffffffffff82111715613399576133986134a9565b5b80604052505050565b60006133ad826132f3565b91507fffffffffffffffffffffffffffffffffffffffffffffffffffffffffffffffff8214156133e0576133df61341c565b5b600182019050919050565b60006133f6826132f3565b9150613401836132f3565b9250826134115761341061344b565b5b828206905092915050565b7f4e487b7100000000000000000000000000000000000000000000000000000000600052601160045260246000fd5b7f4e487b7100000000000000000000000000000000000000000000000000000000600052601260045260246000fd5b7f4e487b7100000000000000000000000000000000000000000000000000000000600052602260045260246000fd5b7f4e487b7100000000000000000000000000000000000000000000000000000000600052604160045260246000fd5b6000601f19601f8301169050919050565b7f4552433732313a207472616e7366657220746f206e6f6e20455243373231526560008201527f63656976657220696d706c656d656e7465720000000000000000000000000000602082015250565b7f4552433732313a207472616e736665722066726f6d20696e636f72726563742060008201527f6f776e6572000000000000000000000000000000000000000000000000000000602082015250565b7f4552433732313a20746f6b656e20616c7265616479206d696e74656400000000600082015250565b7f54484952445f574f524400000000000000000000000000000000000000000000600082015250565b7f4552433732313a207472616e7366657220746f20746865207a65726f2061646460008201527f7265737300000000000000000000000000000000000000000000000000000000602082015250565b7f4552433732313a20617070726f766520746f2063616c6c657200000000000000600082015250565b7f222c20226465736372697074696f6e223a20224120686967686c79206163636c60008201527f61696d656420636f6c6c656374696f6e206f6620737175617265732e222c202260208201527f696d616765223a2022646174613a696d6167652f7376672b786d6c3b6261736560408201527f36342c0000000000000000000000000000000000000000000000000000000000606082015250565b7f5345434f4e445f574f5244000000000000000000000000000000000000000000600082015250565b7f4552433732313a206f70657261746f7220717565727920666f72206e6f6e657860008201527f697374656e7420746f6b656e0000000000000000000000000000000000000000602082015250565b7f3c2f746578743e3c2f7376673e00000000000000000000000000000000000000600082015250565b7f4552433732313a20617070726f76652063616c6c6572206973206e6f74206f7760008201527f6e6572206e6f7220617070726f76656420666f7220616c6c0000000000000000602082015250565b7f4552433732313a2062616c616e636520717565727920666f7220746865207a6560008201527f726f206164647265737300000000000000000000000000000000000000000000602082015250565b7f4552433732313a206f776e657220717565727920666f72206e6f6e657869737460008201527f656e7420746f6b656e0000000000000000000000000000000000000000000000602082015250565b7f45524337323155524953746f726167653a2055524920736574206f66206e6f6e60008201527f6578697374656e7420746f6b656e000000000000000000000000000000000000602082015250565b7f227d000000000000000000000000000000000000000000000000000000000000600082015250565b7f4552433732313a206d696e7420746f20746865207a65726f2061646472657373600082015250565b7f45524337323155524953746f726167653a2055524920717565727920666f722060008201527f6e6f6e6578697374656e7420746f6b656e000000000000000000000000000000602082015250565b7f4552433732313a20617070726f76656420717565727920666f72206e6f6e657860008201527f697374656e7420746f6b656e0000000000000000000000000000000000000000602082015250565b7f4552433732314d657461646174613a2055524920717565727920666f72206e6f60008201527f6e6578697374656e7420746f6b656e0000000000000000000000000000000000602082015250565b7f7b226e616d65223a202200000000000000000000000000000000000000000000600082015250565b7f4552433732313a20617070726f76616c20746f2063757272656e74206f776e6560008201527f7200000000000000000000000000000000000000000000000000000000000000602082015250565b7f46495253545f574f524400000000000000000000000000000000000000000000600082015250565b7f646174613a6170706c69636174696f6e2f6a736f6e3b6261736536342c000000600082015250565b7f4552433732313a207472616e736665722063616c6c6572206973206e6f74206f60008201527f776e6572206e6f7220617070726f766564000000000000000000000000000000602082015250565b7f43616e2774206d696e7420666f72207468616e203530204e4654277300000000600082015250565b7f434f4c4f52000000000000000000000000000000000000000000000000000000600082015250565b613b7c81613289565b8114613b8757600080fd5b50565b613b938161329b565b8114613b9e57600080fd5b50565b613baa816132a7565b8114613bb557600080fd5b50565b613bc1816132f3565b8114613bcc57600080fd5b5056fe416e204e465420772f20494420257320686173206265656e206d696e74656420746f2025734142434445464748494a4b4c4d4e4f505152535455565758595a6162636465666768696a6b6c6d6e6f707172737475767778797a303132333435363738392b2fa2646970667358221220f5e3b68c0d37ce0fc033abc524f1f18319384e6b6116617c0bc703419d77b05f64736f6c634300080100333b20666f6e742d66616d696c793a2073657269663b20666f6e742d73697a653a20323470783b207d3c2f7374796c653e3c726563742077696474683d273130302527206865696768743d2731303025272066696c6c3d27626c61636b27202f3e3c7465787420783d273530252720793d273530252720636c6173733d27626173652720646f6d696e616e742d626173656c696e653d276d6964646c652720746578742d616e63686f723d276d6964646c65273e3c73766720786d6c6e733d27687474703a2f2f7777772e77332e6f72672f323030302f73766727207072657365727665417370656374526174696f3d27784d696e594d696e206d656574272076696577426f783d273020302033353020333530273e3c7374796c653e2e62617365207b2066696c6c3a20",
  "linkReferences": {},
  "deployedLinkReferences": {}
}